{
  "contractName": "FlightSuretyData",
  "abi": [
    {
      "constant": true,
      "inputs": [],
      "name": "total",
      "outputs": [
        {
          "name": "",
          "type": "uint256"
        }
      ],
      "payable": false,
      "stateMutability": "view",
      "type": "function"
    },
    {
      "constant": true,
      "inputs": [],
      "name": "counter",
      "outputs": [
        {
          "name": "",
          "type": "uint256"
        }
      ],
      "payable": false,
      "stateMutability": "view",
      "type": "function"
    },
    {
      "constant": true,
      "inputs": [],
      "name": "numFundedAirlines",
      "outputs": [
        {
          "name": "",
          "type": "uint256"
        }
      ],
      "payable": false,
      "stateMutability": "view",
      "type": "function"
    },
    {
      "constant": true,
      "inputs": [],
      "name": "REGISTRATION_FUND",
      "outputs": [
        {
          "name": "",
          "type": "uint256"
        }
      ],
      "payable": false,
      "stateMutability": "view",
      "type": "function"
    },
    {
      "inputs": [
        {
          "name": "firstAirline",
          "type": "address"
        }
      ],
      "payable": false,
      "stateMutability": "nonpayable",
      "type": "constructor"
    },
    {
      "payable": true,
      "stateMutability": "payable",
      "type": "fallback"
    },
    {
      "constant": true,
      "inputs": [
        {
          "name": "airline",
          "type": "address"
        },
        {
          "name": "flight",
          "type": "string"
        },
        {
          "name": "timestamp",
          "type": "uint256"
        },
        {
          "name": "passenger",
          "type": "address"
        }
      ],
      "name": "isnotinsured",
      "outputs": [
        {
          "name": "",
          "type": "bool"
        }
      ],
      "payable": false,
      "stateMutability": "view",
      "type": "function"
    },
    {
      "constant": true,
      "inputs": [
        {
          "name": "airlineAddress",
          "type": "address"
        }
      ],
      "name": "isAirlineRegistered",
      "outputs": [
        {
          "name": "",
          "type": "bool"
        }
      ],
      "payable": false,
      "stateMutability": "view",
      "type": "function"
    },
    {
      "constant": true,
      "inputs": [
        {
          "name": "airlineAddress",
          "type": "address"
        }
      ],
      "name": "isAirlineFunded",
      "outputs": [
        {
          "name": "",
          "type": "bool"
        }
      ],
      "payable": false,
      "stateMutability": "view",
      "type": "function"
    },
    {
      "constant": true,
      "inputs": [],
      "name": "isOperational",
      "outputs": [
        {
          "name": "",
          "type": "bool"
        }
      ],
      "payable": false,
      "stateMutability": "view",
      "type": "function"
    },
    {
      "constant": false,
      "inputs": [
        {
          "name": "mode",
          "type": "bool"
        }
      ],
      "name": "setOperatingStatus",
      "outputs": [],
      "payable": false,
      "stateMutability": "nonpayable",
      "type": "function"
    },
    {
      "constant": false,
      "inputs": [
        {
          "name": "contractAddress",
          "type": "address"
        }
      ],
      "name": "authorizeCaller",
      "outputs": [],
      "payable": false,
      "stateMutability": "nonpayable",
      "type": "function"
    },
    {
      "constant": false,
      "inputs": [
        {
          "name": "contractAddress",
          "type": "address"
        }
      ],
      "name": "deauthorizeCaller",
      "outputs": [],
      "payable": false,
      "stateMutability": "nonpayable",
      "type": "function"
    },
    {
      "constant": false,
      "inputs": [
        {
          "name": "_airline",
          "type": "address"
        }
      ],
      "name": "registerAirline",
      "outputs": [
        {
          "name": "successfulRegistration",
          "type": "bool"
        }
      ],
      "payable": false,
      "stateMutability": "nonpayable",
      "type": "function"
    },
    {
      "constant": true,
      "inputs": [],
      "name": "getAirlines",
      "outputs": [
        {
          "name": "",
          "type": "address[]"
        }
      ],
      "payable": false,
      "stateMutability": "view",
      "type": "function"
    },
    {
      "constant": true,
      "inputs": [
        {
          "name": "passenger",
          "type": "address"
        }
      ],
      "name": "getPassengerFunds",
      "outputs": [
        {
          "name": "",
          "type": "uint256"
        }
      ],
      "payable": false,
      "stateMutability": "view",
      "type": "function"
    },
    {
      "constant": false,
      "inputs": [
        {
          "name": "amount",
          "type": "uint256"
        },
        {
          "name": "passenger",
          "type": "address"
        }
      ],
      "name": "withdrawPassengerFunds",
      "outputs": [
        {
          "name": "",
          "type": "uint256"
        }
      ],
      "payable": false,
      "stateMutability": "nonpayable",
      "type": "function"
    },
    {
      "constant": false,
      "inputs": [
        {
          "name": "_airlineAddress",
          "type": "address"
        }
      ],
      "name": "fund",
      "outputs": [],
      "payable": true,
      "stateMutability": "payable",
      "type": "function"
    },
    {
      "constant": true,
      "inputs": [
        {
          "name": "airline",
          "type": "address"
        }
      ],
      "name": "getAirlineFunds",
      "outputs": [
        {
          "name": "",
          "type": "bool"
        }
      ],
      "payable": false,
      "stateMutability": "view",
      "type": "function"
    },
    {
      "constant": false,
      "inputs": [
        {
          "name": "airline",
          "type": "address"
        },
        {
          "name": "flight",
          "type": "string"
        },
        {
          "name": "_timestamp",
          "type": "uint256"
        },
        {
          "name": "passenger",
          "type": "address"
        },
        {
          "name": "amount",
          "type": "uint256"
        }
      ],
      "name": "buy",
      "outputs": [],
      "payable": false,
      "stateMutability": "nonpayable",
      "type": "function"
    },
    {
      "constant": false,
      "inputs": [
        {
          "name": "airline",
          "type": "address"
        },
        {
          "name": "flight",
          "type": "string"
        },
        {
          "name": "timestamp",
          "type": "uint256"
        },
        {
          "name": "factor_numerator",
          "type": "uint256"
        },
        {
          "name": "factor_denominator",
          "type": "uint256"
        }
      ],
      "name": "creditInsurees",
      "outputs": [],
      "payable": false,
      "stateMutability": "nonpayable",
      "type": "function"
    },
    {
      "constant": true,
      "inputs": [
        {
          "name": "passenger",
          "type": "address"
        }
      ],
      "name": "getAccountBalance",
      "outputs": [
        {
          "name": "",
          "type": "uint256"
        }
      ],
      "payable": false,
      "stateMutability": "view",
      "type": "function"
    },
    {
      "constant": false,
      "inputs": [
        {
          "name": "airline",
          "type": "address"
        },
        {
          "name": "flight",
          "type": "string"
        },
        {
          "name": "ts",
          "type": "uint256"
        },
        {
          "name": "passenger",
          "type": "address"
        },
        {
          "name": "payout",
          "type": "uint256"
        }
      ],
      "name": "pay",
      "outputs": [],
      "payable": false,
      "stateMutability": "nonpayable",
      "type": "function"
    }
  ],
  "bytecode": "0x60806040526001600060146101000a81548160ff0219169083151502179055506000604051908082528060200260200182016040528015620000505781602001602082028038833980820191505090505b50600b908051906020019062000068929190620001cd565b506000600e60006101000a81548160ff0219169083151502179055506000600f553480156200009657600080fd5b5060405160208062002ce483398101806040526020811015620000b857600080fd5b8101908080519060200190929190505050336000806101000a81548173ffffffffffffffffffffffffffffffffffffffff021916908373ffffffffffffffffffffffffffffffffffffffff16021790555060018060008373ffffffffffffffffffffffffffffffffffffffff1673ffffffffffffffffffffffffffffffffffffffff16815260200190815260200160002060006101000a81548160ff02191690831515021790555060038190806001815401808255809150509060018203906000526020600020016000909192909190916101000a81548173ffffffffffffffffffffffffffffffffffffffff021916908373ffffffffffffffffffffffffffffffffffffffff1602179055505050620002a2565b82805482825590600052602060002090810192821562000249579160200282015b82811115620002485782518260006101000a81548173ffffffffffffffffffffffffffffffffffffffff021916908373ffffffffffffffffffffffffffffffffffffffff16021790555091602001919060010190620001ee565b5b5090506200025891906200025c565b5090565b6200029f91905b808211156200029b57600081816101000a81549073ffffffffffffffffffffffffffffffffffffffff02191690555060010162000263565b5090565b90565b612a3280620002b26000396000f3fe60806040526004361061011d576000357c0100000000000000000000000000000000000000000000000000000000900463ffffffff168063010c5c971461029b5780630792cca6146103045780630d5dc05414610373578063110466ed146103df578063230244081461041c5780632c388d5d146104605780632ddbd13a146104b157806345d29b92146104dc57806361bc221a146105415780636873c21d1461056c57806389d194e2146105bd57806393423e9c146106975780639e4a8f8f146106fc578063b11dca7814610765578063bdfd98771461083f578063cd7d882c146108a8578063cd905dff1461096c578063e0cf1b901461099b578063e377ff9e14610a83578063f0b74d1414610aae578063f53b6d6514610ad9575b6001600260003373ffffffffffffffffffffffffffffffffffffffff1673ffffffffffffffffffffffffffffffffffffffff168152602001908152602001600020541415156101d4576040517f08c379a000000000000000000000000000000000000000000000000000000000815260040180806020018281038252601c8152602001807f43616c6c6572206973206e6f7420636f6e7472616374206f776e65720000000081525060200191505060405180910390fd5b6000803690501415156101e657600080fd5b3073ffffffffffffffffffffffffffffffffffffffff166323024408336040518263ffffffff167c0100000000000000000000000000000000000000000000000000000000028152600401808273ffffffffffffffffffffffffffffffffffffffff1673ffffffffffffffffffffffffffffffffffffffff168152602001915050600060405180830381600087803b15801561028157600080fd5b505af1158015610295573d6000803e3d6000fd5b50505050005b3480156102a757600080fd5b506102ea600480360360208110156102be57600080fd5b81019080803573ffffffffffffffffffffffffffffffffffffffff169060200190929190505050610b42565b604051808215151515815260200191505060405180910390f35b34801561031057600080fd5b5061035d6004803603604081101561032757600080fd5b8101908080359060200190929190803573ffffffffffffffffffffffffffffffffffffffff169060200190929190505050610b98565b6040518082815260200191505060405180910390f35b34801561037f57600080fd5b50610388610e0e565b6040518080602001828103825283818151815260200191508051906020019060200280838360005b838110156103cb5780820151818401526020810190506103b0565b505050509050019250505060405180910390f35b3480156103eb57600080fd5b5061041a6004803603602081101561040257600080fd5b81019080803515159060200190929190505050610e9c565b005b61045e6004803603602081101561043257600080fd5b81019080803573ffffffffffffffffffffffffffffffffffffffff16906020019092919050505061125c565b005b34801561046c57600080fd5b506104af6004803603602081101561048357600080fd5b81019080803573ffffffffffffffffffffffffffffffffffffffff169060200190929190505050611434565b005b3480156104bd57600080fd5b506104c6611540565b6040518082815260200191505060405180910390f35b3480156104e857600080fd5b5061052b600480360360208110156104ff57600080fd5b81019080803573ffffffffffffffffffffffffffffffffffffffff169060200190929190505050611546565b6040518082815260200191505060405180910390f35b34801561054d57600080fd5b5061055661158f565b6040518082815260200191505060405180910390f35b34801561057857600080fd5b506105bb6004803603602081101561058f57600080fd5b81019080803573ffffffffffffffffffffffffffffffffffffffff169060200190929190505050611595565b005b3480156105c957600080fd5b50610695600480360360a08110156105e057600080fd5b81019080803573ffffffffffffffffffffffffffffffffffffffff1690602001909291908035906020019064010000000081111561061d57600080fd5b82018360208201111561062f57600080fd5b8035906020019184600183028401116401000000008311171561065157600080fd5b909192939192939080359060200190929190803573ffffffffffffffffffffffffffffffffffffffff1690602001909291908035906020019092919050505061169f565b005b3480156106a357600080fd5b506106e6600480360360208110156106ba57600080fd5b81019080803573ffffffffffffffffffffffffffffffffffffffff1690602001909291905050506118fe565b6040518082815260200191505060405180910390f35b34801561070857600080fd5b5061074b6004803603602081101561071f57600080fd5b81019080803573ffffffffffffffffffffffffffffffffffffffff169060200190929190505050611aa7565b604051808215151515815260200191505060405180910390f35b34801561077157600080fd5b5061083d600480360360a081101561078857600080fd5b81019080803573ffffffffffffffffffffffffffffffffffffffff169060200190929190803590602001906401000000008111156107c557600080fd5b8201836020820111156107d757600080fd5b803590602001918460018302840111640100000000831117156107f957600080fd5b909192939192939080359060200190929190803573ffffffffffffffffffffffffffffffffffffffff16906020019092919080359060200190929190505050611d27565b005b34801561084b57600080fd5b5061088e6004803603602081101561086257600080fd5b81019080803573ffffffffffffffffffffffffffffffffffffffff1690602001909291905050506120d0565b604051808215151515815260200191505060405180910390f35b3480156108b457600080fd5b5061096a600480360360a08110156108cb57600080fd5b81019080803573ffffffffffffffffffffffffffffffffffffffff1690602001909291908035906020019064010000000081111561090857600080fd5b82018360208201111561091a57600080fd5b8035906020019184600183028401116401000000008311171561093c57600080fd5b90919293919293908035906020019092919080359060200190929190803590602001909291905050506122fb565b005b34801561097857600080fd5b506109816126b5565b604051808215151515815260200191505060405180910390f35b3480156109a757600080fd5b50610a69600480360360808110156109be57600080fd5b81019080803573ffffffffffffffffffffffffffffffffffffffff169060200190929190803590602001906401000000008111156109fb57600080fd5b820183602082011115610a0d57600080fd5b80359060200191846001830284011164010000000083111715610a2f57600080fd5b909192939192939080359060200190929190803573ffffffffffffffffffffffffffffffffffffffff1690602001909291905050506126cb565b604051808215151515815260200191505060405180910390f35b348015610a8f57600080fd5b50610a98612785565b6040518082815260200191505060405180910390f35b348015610aba57600080fd5b50610ac361278b565b6040518082815260200191505060405180910390f35b348015610ae557600080fd5b50610b2860048036036020811015610afc57600080fd5b81019080803573ffffffffffffffffffffffffffffffffffffffff169060200190929190505050612797565b604051808215151515815260200191505060405180910390f35b6000600160008373ffffffffffffffffffffffffffffffffffffffff1673ffffffffffffffffffffffffffffffffffffffff16815260200190815260200160002060009054906101000a900460ff169050919050565b60008060149054906101000a900460ff161515610c43576040517f08c379a00000000000000000000000000000000000000000000000000000000081526004018080602001828103825260258152602001807f436f6e74726163742069732063757272656e746c79206e6f74206f706572617481526020017f696f6e616c00000000000000000000000000000000000000000000000000000081525060400191505060405180910390fd5b6001600260003373ffffffffffffffffffffffffffffffffffffffff1673ffffffffffffffffffffffffffffffffffffffff16815260200190815260200160002054141515610cfa576040517f08c379a000000000000000000000000000000000000000000000000000000000815260040180806020018281038252601c8152602001807f43616c6c6572206973206e6f7420636f6e7472616374206f776e65720000000081525060200191505060405180910390fd5b82600660008473ffffffffffffffffffffffffffffffffffffffff1673ffffffffffffffffffffffffffffffffffffffff1681526020019081526020016000205403600660008473ffffffffffffffffffffffffffffffffffffffff1673ffffffffffffffffffffffffffffffffffffffff168152602001908152602001600020819055508173ffffffffffffffffffffffffffffffffffffffff166108fc849081150290604051600060405180830381858888f19350505050158015610dc5573d6000803e3d6000fd5b50600660008373ffffffffffffffffffffffffffffffffffffffff1673ffffffffffffffffffffffffffffffffffffffff16815260200190815260200160002054905092915050565b60606003805480602002602001604051908101604052809291908181526020018280548015610e9257602002820191906000526020600020905b8160009054906101000a900473ffffffffffffffffffffffffffffffffffffffff1673ffffffffffffffffffffffffffffffffffffffff1681526020019060010190808311610e48575b5050505050905090565b600060149054906101000a900460ff16151581151514151515610f4d576040517f08c379a000000000000000000000000000000000000000000000000000000000815260040180806020018281038252602d8152602001807f4e6577206d6f6465206d75737420626520646966666572656e742066726f6d2081526020017f6578697374696e67206d6f64650000000000000000000000000000000000000081525060400191505060405180910390fd5b600080905060011515600c60003373ffffffffffffffffffffffffffffffffffffffff1673ffffffffffffffffffffffffffffffffffffffff16815260200190815260200160002060009054906101000a900460ff1615151415610fb057600190505b8015151561104c576040517f08c379a00000000000000000000000000000000000000000000000000000000081526004018080602001828103825260288152602001807f43616c6c65722068617320616c72656164792063616c6c65642074686973206681526020017f756e6374696f6e2e00000000000000000000000000000000000000000000000081525060400191505060405180910390fd5b600b3390806001815401808255809150509060018203906000526020600020016000909192909190916101000a81548173ffffffffffffffffffffffffffffffffffffffff021916908373ffffffffffffffffffffffffffffffffffffffff160217905550506001600c60003373ffffffffffffffffffffffffffffffffffffffff1673ffffffffffffffffffffffffffffffffffffffff16815260200190815260200160002060006101000a81548160ff021916908315150217905550600d60008154809291906001019190505550600260045481151561112a57fe5b04600d541015156112585781600060146101000a81548160ff02191690831515021790555060008090505b600b8054905081111515611207576000600b8281548110151561117457fe5b9060005260206000200160009054906101000a900473ffffffffffffffffffffffffffffffffffffffff1690506000600c60008373ffffffffffffffffffffffffffffffffffffffff1673ffffffffffffffffffffffffffffffffffffffff16815260200190815260200160002060006101000a81548160ff021916908315150217905550508080600101915050611155565b5060006040519080825280602002602001820160405280156112385781602001602082028038833980820191505090505b50600b908051906020019061124e929190612939565b506000600d819055505b5050565b600060149054906101000a900460ff161515611306576040517f08c379a00000000000000000000000000000000000000000000000000000000081526004018080602001828103825260258152602001807f436f6e74726163742069732063757272656e746c79206e6f74206f706572617481526020017f696f6e616c00000000000000000000000000000000000000000000000000000081525060400191505060405180910390fd5b6001600260003373ffffffffffffffffffffffffffffffffffffffff1673ffffffffffffffffffffffffffffffffffffffff168152602001908152602001600020541415156113bd576040517f08c379a000000000000000000000000000000000000000000000000000000000815260040180806020018281038252601c8152602001807f43616c6c6572206973206e6f7420636f6e7472616374206f776e65720000000081525060200191505060405180910390fd5b6001600560008373ffffffffffffffffffffffffffffffffffffffff1673ffffffffffffffffffffffffffffffffffffffff16815260200190815260200160002060006101000a81548160ff02191690831515021790555061142b600160045461280590919063ffffffff16565b60048190555050565b6000809054906101000a900473ffffffffffffffffffffffffffffffffffffffff1673ffffffffffffffffffffffffffffffffffffffff163373ffffffffffffffffffffffffffffffffffffffff161415156114f8576040517f08c379a000000000000000000000000000000000000000000000000000000000815260040180806020018281038252601c8152602001807f43616c6c6572206973206e6f7420636f6e7472616374206f776e65720000000081525060200191505060405180910390fd5b6001600260008373ffffffffffffffffffffffffffffffffffffffff1673ffffffffffffffffffffffffffffffffffffffff1681526020019081526020016000208190555050565b600f5481565b6000600660008373ffffffffffffffffffffffffffffffffffffffff1673ffffffffffffffffffffffffffffffffffffffff168152602001908152602001600020549050919050565b600d5481565b6000809054906101000a900473ffffffffffffffffffffffffffffffffffffffff1673ffffffffffffffffffffffffffffffffffffffff163373ffffffffffffffffffffffffffffffffffffffff16141515611659576040517f08c379a000000000000000000000000000000000000000000000000000000000815260040180806020018281038252601c8152602001807f43616c6c6572206973206e6f7420636f6e7472616374206f776e65720000000081525060200191505060405180910390fd5b600260008273ffffffffffffffffffffffffffffffffffffffff1673ffffffffffffffffffffffffffffffffffffffff1681526020019081526020016000206000905550565b600060149054906101000a900460ff161515611749576040517f08c379a00000000000000000000000000000000000000000000000000000000081526004018080602001828103825260258152602001807f436f6e74726163742069732063757272656e746c79206e6f74206f706572617481526020017f696f6e616c00000000000000000000000000000000000000000000000000000081525060400191505060405180910390fd5b6001600260003373ffffffffffffffffffffffffffffffffffffffff1673ffffffffffffffffffffffffffffffffffffffff16815260200190815260200160002054141515611800576040517f08c379a000000000000000000000000000000000000000000000000000000000815260040180806020018281038252601c8152602001807f43616c6c6572206973206e6f7420636f6e7472616374206f776e65720000000081525060200191505060405180910390fd5b60006118518787878080601f016020809104026020016040519081016040528093929190818152602001838380828437600081840152601f19601f8201169050808301925050505050505086612821565b905081600a600083815260200190815260200160002060008573ffffffffffffffffffffffffffffffffffffffff1673ffffffffffffffffffffffffffffffffffffffff1681526020019081526020016000208190555081600660008573ffffffffffffffffffffffffffffffffffffffff1673ffffffffffffffffffffffffffffffffffffffff1681526020019081526020016000206000828254019250508190555050505050505050565b60008060149054906101000a900460ff1615156119a9576040517f08c379a00000000000000000000000000000000000000000000000000000000081526004018080602001828103825260258152602001807f436f6e74726163742069732063757272656e746c79206e6f74206f706572617481526020017f696f6e616c00000000000000000000000000000000000000000000000000000081525060400191505060405180910390fd5b6001600260003373ffffffffffffffffffffffffffffffffffffffff1673ffffffffffffffffffffffffffffffffffffffff16815260200190815260200160002054141515611a60576040517f08c379a000000000000000000000000000000000000000000000000000000000815260040180806020018281038252601c8152602001807f43616c6c6572206973206e6f7420636f6e7472616374206f776e65720000000081525060200191505060405180910390fd5b600660008373ffffffffffffffffffffffffffffffffffffffff1673ffffffffffffffffffffffffffffffffffffffff168152602001908152602001600020549050919050565b60008060149054906101000a900460ff161515611b52576040517f08c379a00000000000000000000000000000000000000000000000000000000081526004018080602001828103825260258152602001807f436f6e74726163742069732063757272656e746c79206e6f74206f706572617481526020017f696f6e616c00000000000000000000000000000000000000000000000000000081525060400191505060405180910390fd5b6001600260003373ffffffffffffffffffffffffffffffffffffffff1673ffffffffffffffffffffffffffffffffffffffff16815260200190815260200160002054141515611c09576040517f08c379a000000000000000000000000000000000000000000000000000000000815260040180806020018281038252601c8152602001807f43616c6c6572206973206e6f7420636f6e7472616374206f776e65720000000081525060200191505060405180910390fd5b8160011515600160008373ffffffffffffffffffffffffffffffffffffffff1673ffffffffffffffffffffffffffffffffffffffff16815260200190815260200160002060009054906101000a900460ff161515141515611cd2576040517f08c379a00000000000000000000000000000000000000000000000000000000081526004018080602001828103825260158152602001807f43616c6c6572206e6f742072656769737465726564000000000000000000000081525060200191505060405180910390fd5b600560008473ffffffffffffffffffffffffffffffffffffffff1673ffffffffffffffffffffffffffffffffffffffff16815260200190815260200160002060009054906101000a900460ff16915050919050565b600060149054906101000a900460ff161515611dd1576040517f08c379a00000000000000000000000000000000000000000000000000000000081526004018080602001828103825260258152602001807f436f6e74726163742069732063757272656e746c79206e6f74206f706572617481526020017f696f6e616c00000000000000000000000000000000000000000000000000000081525060400191505060405180910390fd5b6001600260003373ffffffffffffffffffffffffffffffffffffffff1673ffffffffffffffffffffffffffffffffffffffff16815260200190815260200160002054141515611e88576040517f08c379a000000000000000000000000000000000000000000000000000000000815260040180806020018281038252601c8152602001807f43616c6c6572206973206e6f7420636f6e7472616374206f776e65720000000081525060200191505060405180910390fd5b8560011515600160008373ffffffffffffffffffffffffffffffffffffffff1673ffffffffffffffffffffffffffffffffffffffff16815260200190815260200160002060009054906101000a900460ff161515141515611f51576040517f08c379a00000000000000000000000000000000000000000000000000000000081526004018080602001828103825260158152602001807f43616c6c6572206e6f742072656769737465726564000000000000000000000081525060200191505060405180910390fd5b6000611fa28888888080601f016020809104026020016040519081016040528093929190818152602001838380828437600081840152601f19601f8201169050808301925050505050505087612821565b9050600760008281526020019081526020016000208490806001815401808255809150509060018203906000526020600020016000909192909190916101000a81548173ffffffffffffffffffffffffffffffffffffffff021916908373ffffffffffffffffffffffffffffffffffffffff1602179055505082600860008673ffffffffffffffffffffffffffffffffffffffff1673ffffffffffffffffffffffffffffffffffffffff1681526020019081526020016000206000838152602001908152602001600020819055506000600a600083815260200190815260200160002060008673ffffffffffffffffffffffffffffffffffffffff1673ffffffffffffffffffffffffffffffffffffffff168152602001908152602001600020819055505050505050505050565b60008060149054906101000a900460ff16151561217b576040517f08c379a00000000000000000000000000000000000000000000000000000000081526004018080602001828103825260258152602001807f436f6e74726163742069732063757272656e746c79206e6f74206f706572617481526020017f696f6e616c00000000000000000000000000000000000000000000000000000081525060400191505060405180910390fd5b6001600260003373ffffffffffffffffffffffffffffffffffffffff1673ffffffffffffffffffffffffffffffffffffffff16815260200190815260200160002054141515612232576040517f08c379a000000000000000000000000000000000000000000000000000000000815260040180806020018281038252601c8152602001807f43616c6c6572206973206e6f7420636f6e7472616374206f776e65720000000081525060200191505060405180910390fd5b60018060008473ffffffffffffffffffffffffffffffffffffffff1673ffffffffffffffffffffffffffffffffffffffff16815260200190815260200160002060006101000a81548160ff0219169083151502179055506001905060038290806001815401808255809150509060018203906000526020600020016000909192909190916101000a81548173ffffffffffffffffffffffffffffffffffffffff021916908373ffffffffffffffffffffffffffffffffffffffff16021790555050809050919050565b600060149054906101000a900460ff1615156123a5576040517f08c379a00000000000000000000000000000000000000000000000000000000081526004018080602001828103825260258152602001807f436f6e74726163742069732063757272656e746c79206e6f74206f706572617481526020017f696f6e616c00000000000000000000000000000000000000000000000000000081525060400191505060405180910390fd5b6001600260003373ffffffffffffffffffffffffffffffffffffffff1673ffffffffffffffffffffffffffffffffffffffff1681526020019081526020016000205414151561245c576040517f08c379a000000000000000000000000000000000000000000000000000000000815260040180806020018281038252601c8152602001807f43616c6c6572206973206e6f7420636f6e7472616374206f776e65720000000081525060200191505060405180910390fd5b60006124ad8787878080601f016020809104026020016040519081016040528093929190818152602001838380828437600081840152601f19601f8201169050808301925050505050505086612821565b9050600060076000838152602001908152602001600020905060008090505b81805490508160ff1610156126aa576000828260ff168154811015156124ee57fe5b9060005260206000200160009054906101000a900473ffffffffffffffffffffffffffffffffffffffff169050600080600860008473ffffffffffffffffffffffffffffffffffffffff1673ffffffffffffffffffffffffffffffffffffffff16815260200190815260200160002060008781526020019081526020016000205490506000600a600088815260200190815260200160002060008573ffffffffffffffffffffffffffffffffffffffff1673ffffffffffffffffffffffffffffffffffffffff1681526020019081526020016000205490506000811415612699576125f4886125e68b856128eb90919063ffffffff16565b61292390919063ffffffff16565b925082600a600089815260200190815260200160002060008673ffffffffffffffffffffffffffffffffffffffff1673ffffffffffffffffffffffffffffffffffffffff1681526020019081526020016000208190555082600660008673ffffffffffffffffffffffffffffffffffffffff1673ffffffffffffffffffffffffffffffffffffffff168152602001908152602001600020600082825401925050819055505b5050505080806001019150506124cc565b505050505050505050565b60008060149054906101000a900460ff16905090565b60008061271d8787878080601f016020809104026020016040519081016040528093929190818152602001838380828437600081840152601f19601f8201169050808301925050505050505086612821565b90506000600860008573ffffffffffffffffffffffffffffffffffffffff1673ffffffffffffffffffffffffffffffffffffffff1681526020019081526020016000206000838152602001908152602001600020549050600081149250505095945050505050565b60045481565b678ac7230489e8000081565b600060011515600560008473ffffffffffffffffffffffffffffffffffffffff1673ffffffffffffffffffffffffffffffffffffffff16815260200190815260200160002060009054906101000a900460ff16151514156127fb5760019050612800565b600090505b919050565b6000818301905082811015151561281857fe5b80905092915050565b6000838383604051602001808473ffffffffffffffffffffffffffffffffffffffff1673ffffffffffffffffffffffffffffffffffffffff166c0100000000000000000000000002815260140183805190602001908083835b60208310151561289f578051825260208201915060208101905060208303925061287a565b6001836020036101000a03801982511681845116808217855250505050505090500182815260200193505050506040516020818303038152906040528051906020012090509392505050565b6000808314156128fe576000905061291d565b818302905081838281151561290f57fe5b0414151561291957fe5b8090505b92915050565b6000818381151561293057fe5b04905092915050565b8280548282559060005260206000209081019282156129b2579160200282015b828111156129b15782518260006101000a81548173ffffffffffffffffffffffffffffffffffffffff021916908373ffffffffffffffffffffffffffffffffffffffff16021790555091602001919060010190612959565b5b5090506129bf91906129c3565b5090565b612a0391905b808211156129ff57600081816101000a81549073ffffffffffffffffffffffffffffffffffffffff0219169055506001016129c9565b5090565b9056fea165627a7a72305820b9afab4a563a6ffa6e915014cfb8e7f800caac595a4e6b8ef7c33283f2746edc0029",
  "source": "pragma solidity ^0.5.0;\n\n\nimport \"../node_modules/openzeppelin-solidity/contracts/math/SafeMath.sol\";\n\ncontract FlightSuretyData {\n    using SafeMath for uint256;\n\n    /********************************************************************************************/\n    /*                                       DATA VARIABLES                                     */\n    /********************************************************************************************/\n\n    address private contractOwner;                                      // Account used to deploy contract\n    bool private operational = true;                                    // Blocks all state changes throughout the contract if false\n    mapping (address => bool) private registeredAirlines;\n    //mapping (address => uint) private fundedAirlines;\n    mapping(address => uint256) private authorizedContracts;\n    address[] airlines;\n\n    uint256 public constant REGISTRATION_FUND = 10 ether;\n    uint public numFundedAirlines;\n    mapping(address => bool) private fundedAirlines;\n\n//this will track insurance for each passenger\n  /*    struct PassengerInsurance {\n        address  passenger;\n        uint     insuranceamount;\n        uint     payout;\n    }  */\n    //this will track insurance for each airline\n\n    //use Pascal case for sruct\n    /* struct Airlineinsurance {\n        string cid;\n        //string   flight;\n        //uint256  timestamp;\n        uint     insuranceamount;\n        //uint    payout;\n    }\n    struct Payment{\n        uint purchasedamount;\n        uint payout;\n    } */\n\n    //mapping (bytes32 => Airlineinsurance[]) airlinesInsuranceHistory;\n   // mapping (address => passengerInsurance[]) passengerInsuranceHistory;\n   //passenger => amount\n    mapping(address => uint) private accountBalance;\n    //flightkey => passengers\n    mapping(bytes32 =>address[]) private airlineinsurees;\n    //mapping(address =>mapping(bytes32 => Payment)) insuredamount;\n\n    //passenger =>(flightkey => amount)\n    mapping(address =>mapping(bytes32 => uint)) insuredamount;\n    mapping(address => uint) private fundedinsurance;\n\n    //flightkey =>(passenger => payout)\n    mapping(bytes32 =>mapping(address => uint)) insuredpayout;\n\n\n    address[] multiAddress = new address[](0);\n    mapping (address => bool) private multiCalls;\n    uint public counter;\n    bool flag = false;\n    //address[] public airlinesInsurances;\n     // Max Fee to be paid when buying insurance\n\n    //uint256 public constant MIN_FUNDING_AMOUNT = 10 ether;\n    /********************************************************************************************/\n    /*                                       EVENT DEFINITIONS                                  */\n    /********************************************************************************************/\n\n\n    /**\n    * @dev Constructor\n    *      The deploying account becomes contractOwner\n    */\n    constructor\n                                (\n                                    address firstAirline\n                                )\n                                public\n    {\n        contractOwner = msg.sender;\n        registeredAirlines[firstAirline] = true;\n        airlines.push(firstAirline);\n    }\n\n    /********************************************************************************************/\n    /*                                       FUNCTION MODIFIERS                                 */\n    /********************************************************************************************/\n\n    // Modifiers help avoid duplication of code. They are typically used to validate something\n    // before a function is allowed to be executed.\n\n    /**\n    * @dev Modifier that requires the \"operational\" boolean variable to be \"true\"\n    *      This is used on all state changing functions to pause the contract in\n    *      the event there is an issue that needs to be fixed\n    */\n    modifier requireIsOperational()\n    {\n        require(operational, \"Contract is currently not operational\");\n        _;  // All modifiers require an \"_\" which indicates where the function body will be added\n    }\n\n    /**\n    * @dev Modifier that requires the \"ContractOwner\" account to be the function caller\n    */\n    modifier requireContractOwner()\n    {\n        require(msg.sender == contractOwner, \"Caller is not contract owner\");\n        _;\n    }\n\n     modifier requireIsCallerAirlineRegistered(address caller)\n    {\n        require( registeredAirlines[caller] == true, \"Caller not registered\");\n        _;\n    }\n\n     modifier requireisAirlineNotRegistered(address airline)\n    {\n        require( registeredAirlines[airline] == false, \"Airline already registered\");\n        _;\n    }\n    modifier requireIsCallerAuthorized()\n    {\n        require(authorizedContracts[msg.sender] == 1, \"Caller is not contract owner\");\n        _;\n    }\n\n\n\n    /*modifier requireisAirlineFunded(address airline)\n    {\n        require( fundedAirlines[airline] >= 10, \"Airline must submit funds of 10 ether\");\n        _;\n    }*/\n    /********************************************************************************************/\n    /*                                       UTILITY FUNCTIONS                                  */\n    /********************************************************************************************/\n\n    function isnotinsured(address airline,string calldata flight,uint timestamp,address passenger)\n                    external\n                    view\n                    returns(bool)\n    {\n        bytes32 flightkey = getFlightKey(airline,flight,timestamp);\n        uint amount = insuredamount[passenger][flightkey];\n        return(amount == 0);\n    }\n\n    function isAirlineRegistered(address airlineAddress)\n                            public\n                            view\n                            returns (bool)\n    {\n        return registeredAirlines[airlineAddress];\n    }\n    /**\n    * @dev airline can only take part in registration of other airlines\n    *     if it has more than 10 ether in its balance\n    */\n    function isAirlineFunded(address airlineAddress)\n                            public\n                            view\n                            returns (bool)\n    {\n\n        if(fundedAirlines[airlineAddress] == true)\n            return true;\n        else\n            return false;\n    }\n    /**\n    * @dev Get operating status of contract\n    *\n    * @return A bool that is the current operating status\n    */\n    function isOperational()\n                                public\n                                view\n                                returns(bool)\n        {\n            return operational;\n        }\n\n\n        /**\n        * @dev Sets contract operations on/off\n        *\n        * When operational mode is disabled, all write transactions except for this one will fail\n        */\n    function setOperatingStatus\n                              (\n                                bool mode\n                              )\n                              external\n        {\n            require(mode != operational, \"New mode must be different from existing mode\");\n\n            bool isDuplicate = false;\n            //for(uint c=0; c<multiCalls.length; c++) {\n            if (multiCalls[msg.sender] == true) {\n                  isDuplicate = true;\n            }\n            //}\n            require(!isDuplicate, \"Caller has already called this function.\");\n            multiAddress.push(msg.sender);\n            multiCalls[msg.sender] = true;\n            counter++;\n\n            if (counter >= numFundedAirlines/2) {\n                operational = mode;\n                for(uint i=0;i<=multiAddress.length; i++){\n                  address f = multiAddress[i];\n                  multiCalls[f] = false;\n                }\n                multiAddress = new address[](0);\n                counter = 0;\n            }\n        }\n    /********************************************************************************************/\n    /*                                     SMART CONTRACT FUNCTIONS                             */\n    /********************************************************************************************/\n\n     function authorizeCaller\n                            (\n                                address contractAddress\n                            )\n                            external\n                            requireContractOwner\n    {\n        authorizedContracts[contractAddress] = 1;\n\n    }\n\n    function deauthorizeCaller\n                            (\n                                address contractAddress\n                            )\n                            external\n                            requireContractOwner\n    {\n        delete authorizedContracts[contractAddress];\n    }\n   /**\n    * @dev Add an airline to the registration queue\n    *      Can only be called from FlightSuretyApp contract\n    *\n    */\n    function registerAirline\n                            (\n                                address _airline\n                            )\n                            external\n                            requireIsOperational\n                            requireIsCallerAuthorized\n                            returns(bool successfulRegistration)\n    {\n        registeredAirlines[_airline] = true;\n        successfulRegistration = true;\n        airlines.push(_airline);\n        return successfulRegistration;\n    }\n\n    function getAirlines()\n                external\n                view\n                returns(address[] memory)\n\n\n    {\n        return airlines;\n    }\n\n\n    function getPassengerFunds(address passenger)\n                external\n                view\n                returns(uint)\n\n\n    {\n\n        return accountBalance[passenger];\n    }\n\n    function withdrawPassengerFunds(uint amount,address payable passenger)\n                                    external\n                                    requireIsOperational\n                                    requireIsCallerAuthorized\n                                    returns(uint)\n    {\n        accountBalance[passenger] = accountBalance[passenger] - amount;\n        passenger.transfer(amount);\n\n        return accountBalance[passenger];\n    }\n\n/**\n  * @dev airline can deposit funds in any amount\n */\n     function fund\n                             (address _airlineAddress)\n                             // public\n                             // payable\n                             // requireIsOperational\n                             // requireIsCallerAuthorized\n                             // requireIsCallerAirlineRegistered(_airlineAddress)\n                             public\n                             payable\n                             requireIsOperational\n                             requireIsCallerAuthorized\n     {\n         fundedAirlines[_airlineAddress] = true;\n         numFundedAirlines = numFundedAirlines.add(1);\n         //return true;\n     }\n\n    // function fundAirline\n    //                         (\n    //                             address airline,\n    //                             uint amount\n    //                         )\n    //                         external\n    //                         requireIsOperational\n    //                         requireIsCallerAuthorized\n    //                         requireIsCallerAirlineRegistered(airline)\n    //\n    // {\n    //     //fundedAirlines[airline] += amount;\n    // }\n\n    /**\n  * @dev to see how much fund an airline has\n */\n    function getAirlineFunds\n                            (\n                                address airline\n\n                            )\n                            external\n                            view\n                            requireIsOperational\n                            requireIsCallerAuthorized\n                            requireIsCallerAirlineRegistered(airline)\n                            returns(bool)\n\n    {\n        return (fundedAirlines[airline]);\n    }\n\n   /**\n    * @dev Buy insurance for a flight. If a passenger sends more than 1 ether then the excess is returned.\n    *\n    */\n\n     function buy (address  airline,string calldata flight,uint256 _timestamp,address passenger,uint amount)\n                            external\n                            requireIsOperational\n                            requireIsCallerAuthorized\n                            requireIsCallerAirlineRegistered(airline)\n    {\n\n        bytes32 flightkey = getFlightKey(airline,flight,_timestamp);\n\n       // PassengerInsurance memory pinsurance = PassengerInsurance({passenger:_passenger,insuranceamount:amount,payout:0});\n        //airlineInsurance[flightkey].push(pinsurance);\n\n        airlineinsurees[flightkey].push(passenger);\n\n        insuredamount[passenger][flightkey]= amount;\n        insuredpayout[flightkey][passenger] = 0;\n\n\n    }\n    uint public  total = 0;\n    /**\n     *  @dev Credits payouts to insurees\n    */\n    function creditInsurees\n                                (\n                                    address airline,\n                                    string calldata flight,\n                                    uint256 timestamp,\n                                    uint factor_numerator,\n                                    uint factor_denominator\n\n                                )\n                                external\n                                requireIsOperational\n                                requireIsCallerAuthorized\n\n    {\n        //get all the insurees\n        bytes32 flightkey = getFlightKey(airline,flight,timestamp);\n\n         address[] storage insurees = airlineinsurees[flightkey];\n\n\n          for(uint8 i = 0; i < insurees.length; i++) {\n             address passenger = insurees[i];\n             uint256 payout;\n            uint amount = insuredamount[passenger][flightkey];\n\n            //check if already paid\n            uint paid = insuredpayout[flightkey][passenger];\n            if(paid == 0)\n            {\n             // bool success = _appcontract.call(bytes4(keccak256(\"calculatePayout(uint256)\")), amount);\n                payout = amount.mul(factor_numerator).div(factor_denominator);\n\n                insuredpayout[flightkey][passenger] = payout;\n                accountBalance[passenger] += payout;\n\n            }\n\n        }\n    }\n\n\n\n    //functions to debug contract\n    /*  function getInsurees(address airline,string flight,uint ts)\n                        external\n                         view\n                         requireIsOperational\n                        requireIsCallerAuthorized\n                        returns(PassengerInsurance[])\n        {\n\n       // PassengerInsurance memory pinsurance\n             bytes32 flightkey = getFlightKey(airline,flight,ts);\n            PassengerInsurance[] storage insurees = airlineInsurance[flightkey];//airlineinsurees[flightkey];\n\n            return insurees;\n        } */\n/*\n         function isAmountNotPaid(address airline,string flight,uint ts,address passenger)\n                        external\n                         view\n                         requireIsOperational\n                        requireIsCallerAuthorized\n                        returns(bool)\n        {\n\n            bytes32 flightkey = getFlightKey(airline,flight,ts);\n            uint paid = insuredpayout[flightkey][passenger];\n            return (paid == 0);\n        } */\n\n        function getAccountBalance(address passenger)\n                                    external\n                                    view\n                                    requireIsOperational\n                                    requireIsCallerAuthorized\n                                    returns(uint)\n             {\n                return accountBalance[passenger];\n             }\n\n       /*  function getInsuredAmount(address airline,string flight,uint ts,address passenger)\n                        external\n                         view\n                         requireIsOperational\n                        requireIsCallerAuthorized\n                        returns(uint)\n        {\n\n            bytes32 flightkey = getFlightKey(airline,flight,ts);\n            uint amount = insuredamount[passenger][flightkey];\n            return amount;\n        } */\n\n    /* function getInsureesAmount(address airline,string flight,uint ts) external  returns(uint)\n    {\n\n        bytes32 flightkey = getFlightKey(airline,flight,ts);\n        address[] storage insurees = airlineinsurees[flightkey];\n          for(uint8 i = 0; i < insurees.length; i++) {\n                address passenger = insurees[i];\n\n                total = total + accountBalance[passenger];\n          }\n          return total;\n\n\n    } */\n    /**\n     *  @dev Transfers eligible payout funds to insuree\n     *\n    */\n    function pay\n                            (   address airline,string calldata flight,uint ts,\n                                address passenger,\n                                uint payout\n                            )\n                            external\n                            requireIsOperational\n                            requireIsCallerAuthorized\n\n    {\n        bytes32 flightkey = getFlightKey(airline,flight,ts);\n        insuredpayout[flightkey][passenger] = payout;\n        accountBalance[passenger] += payout;\n\n        //uint256 prev = accountBalance[customerAddress];\n        //accountBalance[customerAddress] = 0;\n        //passenger.transfer(payout);\n    }\n\n   /**\n    * @dev Initial funding for the insurance. Unless there are too many delayed flights\n    *      resulting in insurance payouts, the contract should be self-sustaining\n    *\n    */\n\n    function getFlightKey\n                        (\n                            address airline,\n                            string memory flight,\n                            uint256 timestamp\n                        )\n                        pure\n                        internal\n                        returns(bytes32)\n    {\n        return keccak256(abi.encodePacked(airline, flight, timestamp));\n    }\n\n    /**\n    * @dev Fallback function for funding smart contract.\n    *\n    */\n    function()\n                            external\n                            payable\n                            requireIsCallerAuthorized\n    {\n       require(msg.data.length == 0);\n       this.fund(msg.sender);\n    }\n\n\n}\n",
  "sourcePath": "/home/teo/Documents/Blockchain-Udacity/flightSurety-master-master/contracts/FlightSuretyData.sol",
  "compiler": {
    "name": "solc",
    "version": "0.5.0+commit.1d4f565a.Emscripten.clang"
  },
  "schemaVersion": "3.0.2",
  "updatedAt": "2019-06-14T06:21:28.621Z",
  "devdoc": {
    "methods": {
      "buy(address,string,uint256,address,uint256)": {
        "details": "Buy insurance for a flight. If a passenger sends more than 1 ether then the excess is returned.    "
      },
      "constructor": {
        "details": "Constructor     The deploying account becomes contractOwner"
      },
      "creditInsurees(address,string,uint256,uint256,uint256)": {
        "details": "Credits payouts to insurees"
      },
      "fund(address)": {
        "details": "airline can deposit funds in any amount"
      },
      "getAirlineFunds(address)": {
        "details": "to see how much fund an airline has"
      },
      "isAirlineFunded(address)": {
        "details": "airline can only take part in registration of other airlines    if it has more than 10 ether in its balance"
      },
      "isOperational()": {
        "details": "Get operating status of contract",
        "return": "A bool that is the current operating status"
      },
      "pay(address,string,uint256,address,uint256)": {
        "details": "Transfers eligible payout funds to insuree    "
      },
      "registerAirline(address)": {
        "details": "Add an airline to the registration queue     Can only be called from FlightSuretyApp contract    "
      },
      "setOperatingStatus(bool)": {
        "details": "Sets contract operations on/off        * When operational mode is disabled, all write transactions except for this one will fail"
      }
    }
  },
  "userdoc": {
    "methods": {
      "authorizeCaller(address)": {
        "notice": "*****************************************************************************************"
      },
      "isnotinsured(address,string,uint256,address)": {
        "notice": "*****************************************************************************************"
      }
    }
  }
}