{
  "contractName": "FlightSuretyApp",
  "abi": [
    {
      "constant": true,
      "inputs": [],
      "name": "MAX_INSURANCE_FEE",
      "outputs": [
        {
          "name": "",
          "type": "uint256"
        }
      ],
      "payable": false,
      "stateMutability": "view",
      "type": "function"
    },
    {
      "constant": true,
      "inputs": [
        {
          "name": "",
          "type": "address"
        }
      ],
      "name": "airlines",
      "outputs": [
        {
          "name": "name",
          "type": "string"
        },
        {
          "name": "state",
          "type": "uint8"
        },
        {
          "name": "funded",
          "type": "bool"
        },
        {
          "name": "numOfVotes",
          "type": "uint256"
        }
      ],
      "payable": false,
      "stateMutability": "view",
      "type": "function"
    },
    {
      "constant": true,
      "inputs": [
        {
          "name": "",
          "type": "address"
        }
      ],
      "name": "exist",
      "outputs": [
        {
          "name": "",
          "type": "bool"
        }
      ],
      "payable": false,
      "stateMutability": "view",
      "type": "function"
    },
    {
      "constant": true,
      "inputs": [],
      "name": "REGISTRATION_FEE",
      "outputs": [
        {
          "name": "",
          "type": "uint256"
        }
      ],
      "payable": false,
      "stateMutability": "view",
      "type": "function"
    },
    {
      "constant": true,
      "inputs": [],
      "name": "numOfRegisteredAirlines",
      "outputs": [
        {
          "name": "",
          "type": "uint8"
        }
      ],
      "payable": false,
      "stateMutability": "view",
      "type": "function"
    },
    {
      "constant": true,
      "inputs": [],
      "name": "MIN_FUNDING_AMOUNT",
      "outputs": [
        {
          "name": "",
          "type": "uint256"
        }
      ],
      "payable": false,
      "stateMutability": "view",
      "type": "function"
    },
    {
      "inputs": [
        {
          "name": "dataContract",
          "type": "address"
        },
        {
          "name": "_name",
          "type": "string"
        },
        {
          "name": "firstAirline",
          "type": "address"
        }
      ],
      "payable": false,
      "stateMutability": "nonpayable",
      "type": "constructor"
    },
    {
      "anonymous": false,
      "inputs": [
        {
          "indexed": false,
          "name": "airline",
          "type": "address"
        },
        {
          "indexed": false,
          "name": "flight",
          "type": "string"
        },
        {
          "indexed": false,
          "name": "timestamp",
          "type": "uint256"
        },
        {
          "indexed": false,
          "name": "status",
          "type": "uint8"
        }
      ],
      "name": "FlightStatusInfo",
      "type": "event"
    },
    {
      "anonymous": false,
      "inputs": [
        {
          "indexed": false,
          "name": "airline",
          "type": "address"
        },
        {
          "indexed": false,
          "name": "flight",
          "type": "string"
        },
        {
          "indexed": false,
          "name": "timestamp",
          "type": "uint256"
        },
        {
          "indexed": false,
          "name": "status",
          "type": "uint8"
        }
      ],
      "name": "OracleReport",
      "type": "event"
    },
    {
      "anonymous": false,
      "inputs": [
        {
          "indexed": false,
          "name": "index",
          "type": "uint8"
        },
        {
          "indexed": false,
          "name": "airline",
          "type": "address"
        },
        {
          "indexed": false,
          "name": "flight",
          "type": "string"
        },
        {
          "indexed": false,
          "name": "timestamp",
          "type": "uint256"
        }
      ],
      "name": "OracleRequest",
      "type": "event"
    },
    {
      "constant": true,
      "inputs": [],
      "name": "isOperational",
      "outputs": [
        {
          "name": "",
          "type": "bool"
        }
      ],
      "payable": false,
      "stateMutability": "view",
      "type": "function"
    },
    {
      "constant": true,
      "inputs": [],
      "name": "numOfAirlines",
      "outputs": [
        {
          "name": "",
          "type": "uint8"
        }
      ],
      "payable": false,
      "stateMutability": "view",
      "type": "function"
    },
    {
      "constant": false,
      "inputs": [
        {
          "name": "_name",
          "type": "string"
        },
        {
          "name": "_airline",
          "type": "address"
        }
      ],
      "name": "registerAirline",
      "outputs": [
        {
          "name": "successfulRegistration",
          "type": "bool"
        },
        {
          "name": "votes",
          "type": "uint256"
        }
      ],
      "payable": false,
      "stateMutability": "nonpayable",
      "type": "function"
    },
    {
      "constant": false,
      "inputs": [],
      "name": "fundingAirline",
      "outputs": [],
      "payable": true,
      "stateMutability": "payable",
      "type": "function"
    },
    {
      "constant": false,
      "inputs": [
        {
          "name": "airline",
          "type": "address"
        },
        {
          "name": "flight",
          "type": "string"
        },
        {
          "name": "timestamp",
          "type": "uint256"
        }
      ],
      "name": "registerFlight",
      "outputs": [],
      "payable": true,
      "stateMutability": "payable",
      "type": "function"
    },
    {
      "constant": false,
      "inputs": [
        {
          "name": "airline",
          "type": "address"
        },
        {
          "name": "flight",
          "type": "string"
        },
        {
          "name": "timestamp",
          "type": "uint256"
        }
      ],
      "name": "fetchFlightStatus",
      "outputs": [],
      "payable": false,
      "stateMutability": "nonpayable",
      "type": "function"
    },
    {
      "constant": false,
      "inputs": [],
      "name": "registerOracle",
      "outputs": [],
      "payable": true,
      "stateMutability": "payable",
      "type": "function"
    },
    {
      "constant": true,
      "inputs": [],
      "name": "getMyIndexes",
      "outputs": [
        {
          "name": "",
          "type": "uint8[3]"
        }
      ],
      "payable": false,
      "stateMutability": "view",
      "type": "function"
    },
    {
      "constant": false,
      "inputs": [
        {
          "name": "index",
          "type": "uint8"
        },
        {
          "name": "airline",
          "type": "address"
        },
        {
          "name": "flight",
          "type": "string"
        },
        {
          "name": "timestamp",
          "type": "uint256"
        },
        {
          "name": "statusCode",
          "type": "uint8"
        }
      ],
      "name": "submitOracleResponse",
      "outputs": [],
      "payable": false,
      "stateMutability": "nonpayable",
      "type": "function"
    },
    {
      "constant": true,
      "inputs": [],
      "name": "getExistingAirlines",
      "outputs": [
        {
          "name": "",
          "type": "address[]"
        }
      ],
      "payable": false,
      "stateMutability": "view",
      "type": "function"
    },
    {
      "constant": true,
      "inputs": [
        {
          "name": "airline",
          "type": "address"
        }
      ],
      "name": "getAirlineFunds",
      "outputs": [
        {
          "name": "",
          "type": "bool"
        }
      ],
      "payable": false,
      "stateMutability": "view",
      "type": "function"
    },
    {
      "constant": true,
      "inputs": [],
      "name": "getBalance",
      "outputs": [
        {
          "name": "funds",
          "type": "uint256"
        }
      ],
      "payable": false,
      "stateMutability": "view",
      "type": "function"
    },
    {
      "constant": false,
      "inputs": [
        {
          "name": "amount",
          "type": "uint256"
        }
      ],
      "name": "withdrawFunds",
      "outputs": [
        {
          "name": "funds",
          "type": "uint256"
        }
      ],
      "payable": false,
      "stateMutability": "nonpayable",
      "type": "function"
    }
  ],
  "bytecode": "0x608060405260008060146101000a81548160ff021916908360ff1602179055506000600860146101000a81548160ff021916908360ff1602179055503480156200004857600080fd5b5060405162004de738038062004de7833981018060405260608110156200006e57600080fd5b810190808051906020019092919080516401000000008111156200009157600080fd5b82810190506020810184811115620000a857600080fd5b8151856001820283011164010000000082111715620000c657600080fd5b505092919060200180519060200190929190505050336000806101000a81548173ffffffffffffffffffffffffffffffffffffffff021916908373ffffffffffffffffffffffffffffffffffffffff16021790555082600860006101000a81548173ffffffffffffffffffffffffffffffffffffffff021916908373ffffffffffffffffffffffffffffffffffffffff16021790555082600760006101000a81548173ffffffffffffffffffffffffffffffffffffffff021916908373ffffffffffffffffffffffffffffffffffffffff160217905550608060405190810160405280838152602001600180811115620001bc57fe5b81526020016000151581526020016000815250600160008373ffffffffffffffffffffffffffffffffffffffff1673ffffffffffffffffffffffffffffffffffffffff16815260200190815260200160002060008201518160000190805190602001906200022c9291906200030f565b5060208201518160010160006101000a81548160ff021916908360018111156200025257fe5b021790555060408201518160010160016101000a81548160ff021916908315150217905550606082015181600201559050506001600060146101000a81548160ff021916908360ff16021790555060038190806001815401808255809150509060018203906000526020600020016000909192909190916101000a81548173ffffffffffffffffffffffffffffffffffffffff021916908373ffffffffffffffffffffffffffffffffffffffff16021790555050505050620003be565b828054600181600116156101000203166002900490600052602060002090601f016020900481019282601f106200035257805160ff191683800117855562000383565b8280016001018555821562000383579182015b828111156200038257825182559160200191906001019062000365565b5b50905062000392919062000396565b5090565b620003bb91905b80821115620003b75760008160009055506001016200039d565b5090565b90565b614a1980620003ce6000396000f3fe608060405260043610610107576000357c0100000000000000000000000000000000000000000000000000000000900463ffffffff1680630e2c41291461010c57806312065fe0146101d1578063155dd5ee146101fc578063339d25901461024b5780633588ec211461025557806338ae432d146102865780633cc0be9c146102b157806341684769146103965780634dfefc4b146104875780635f1cc0e6146104f057806364b4f751146105435780638c5fa5f81461056e5780639e4a8f8f1461059f578063a531acb914610608578063bd666bd614610612578063c10f27001461067e578063cd905dff14610748578063d2a7d38a14610777578063f83f11c0146107a2575b600080fd5b34801561011857600080fd5b506101b06004803603604081101561012f57600080fd5b810190808035906020019064010000000081111561014c57600080fd5b82018360208201111561015e57600080fd5b8035906020019184600183028401116401000000008311171561018057600080fd5b9091929391929390803573ffffffffffffffffffffffffffffffffffffffff169060200190929190505050610852565b60405180831515151581526020018281526020019250505060405180910390f35b3480156101dd57600080fd5b506101e6611843565b6040518082815260200191505060405180910390f35b34801561020857600080fd5b506102356004803603602081101561021f57600080fd5b8101908080359060200190929190505050611a99565b6040518082815260200191505060405180910390f35b610253611e6e565b005b34801561026157600080fd5b5061026a6120ef565b604051808260ff1660ff16815260200191505060405180910390f35b34801561029257600080fd5b5061029b612105565b6040518082815260200191505060405180910390f35b610394600480360360608110156102c757600080fd5b81019080803573ffffffffffffffffffffffffffffffffffffffff1690602001909291908035906020019064010000000081111561030457600080fd5b82018360208201111561031657600080fd5b8035906020019184600183028401116401000000008311171561033857600080fd5b91908080601f016020809104026020016040519081016040528093929190818152602001838380828437600081840152601f19601f82011690508083019250505050505050919291929080359060200190929190505050612111565b005b3480156103a257600080fd5b506103e5600480360360208110156103b957600080fd5b81019080803573ffffffffffffffffffffffffffffffffffffffff169060200190929190505050612909565b60405180806020018560018111156103f957fe5b60ff16815260200184151515158152602001838152602001828103825286818151815260200191508051906020019080838360005b8381101561044957808201518184015260208101905061042e565b50505050905090810190601f1680156104765780820380516001836020036101000a031916815260200191505b509550505050505060405180910390f35b34801561049357600080fd5b506104d6600480360360208110156104aa57600080fd5b81019080803573ffffffffffffffffffffffffffffffffffffffff1690602001909291905050506129eb565b604051808215151515815260200191505060405180910390f35b3480156104fc57600080fd5b50610505612a0b565b6040518082600360200280838360005b83811015610530578082015181840152602081019050610515565b5050505090500191505060405180910390f35b34801561054f57600080fd5b50610558612cd9565b6040518082815260200191505060405180910390f35b34801561057a57600080fd5b50610583612ce5565b604051808260ff1660ff16815260200191505060405180910390f35b3480156105ab57600080fd5b506105ee600480360360208110156105c257600080fd5b81019080803573ffffffffffffffffffffffffffffffffffffffff169060200190929190505050612cf8565b604051808215151515815260200191505060405180910390f35b610610612f50565b005b34801561061e57600080fd5b5061062761336d565b6040518080602001828103825283818151815260200191508051906020019060200280838360005b8381101561066a57808201518184015260208101905061064f565b505050509050019250505060405180910390f35b34801561068a57600080fd5b50610746600480360360a08110156106a157600080fd5b81019080803560ff169060200190929190803573ffffffffffffffffffffffffffffffffffffffff169060200190929190803590602001906401000000008111156106eb57600080fd5b8201836020820111156106fd57600080fd5b8035906020019184600183028401116401000000008311171561071f57600080fd5b909192939192939080359060200190929190803560ff1690602001909291905050506135e2565b005b34801561075457600080fd5b5061075d613d22565b604051808215151515815260200191505060405180910390f35b34801561078357600080fd5b5061078c613de8565b6040518082815260200191505060405180910390f35b3480156107ae57600080fd5b50610850600480360360608110156107c557600080fd5b81019080803573ffffffffffffffffffffffffffffffffffffffff1690602001909291908035906020019064010000000081111561080257600080fd5b82018360208201111561081457600080fd5b8035906020019184600183028401116401000000008311171561083657600080fd5b909192939192939080359060200190929190505050613df4565b005b600080600860009054906101000a900473ffffffffffffffffffffffffffffffffffffffff1673ffffffffffffffffffffffffffffffffffffffff1663cd905dff6040518163ffffffff167c010000000000000000000000000000000000000000000000000000000002815260040160206040518083038186803b1580156108d957600080fd5b505afa1580156108ed573d6000803e3d6000fd5b505050506040513d602081101561090357600080fd5b810190808051906020019092919050505015156109ae576040517f08c379a00000000000000000000000000000000000000000000000000000000081526004018080602001828103825260258152602001807f436f6e74726163742069732063757272656e746c79206e6f74206f706572617481526020017f696f6e616c00000000000000000000000000000000000000000000000000000081525060400191505060405180910390fd5b600860009054906101000a900473ffffffffffffffffffffffffffffffffffffffff1673ffffffffffffffffffffffffffffffffffffffff1663010c5c97336040518263ffffffff167c0100000000000000000000000000000000000000000000000000000000028152600401808273ffffffffffffffffffffffffffffffffffffffff1673ffffffffffffffffffffffffffffffffffffffff16815260200191505060206040518083038186803b158015610a6957600080fd5b505afa158015610a7d573d6000803e3d6000fd5b505050506040513d6020811015610a9357600080fd5b81019080805190602001909291905050501515610b18576040517f08c379a00000000000000000000000000000000000000000000000000000000081526004018080602001828103825260168152602001807f4169726c696e65206e6f7420726567697374657265640000000000000000000081525060200191505060405180910390fd5b6000600860009054906101000a900473ffffffffffffffffffffffffffffffffffffffff1673ffffffffffffffffffffffffffffffffffffffff16639e4a8f8f336040518263ffffffff167c0100000000000000000000000000000000000000000000000000000000028152600401808273ffffffffffffffffffffffffffffffffffffffff1673ffffffffffffffffffffffffffffffffffffffff16815260200191505060206040518083038186803b158015610bd557600080fd5b505afa158015610be9573d6000803e3d6000fd5b505050506040513d6020811015610bff57600080fd5b8101908080519060200190929190505050905060011515811515141515610cda576040517f08c379a00000000000000000000000000000000000000000000000000000000081526004018080602001828103825260418152602001807f4169726c696e652063616e206e6f7420706172746963697061746520696e206381526020017f6f6e747261637420756e74696c206974207375626d697473203130206574686581526020017f720000000000000000000000000000000000000000000000000000000000000081525060600191505060405180910390fd5b83600860009054906101000a900473ffffffffffffffffffffffffffffffffffffffff1673ffffffffffffffffffffffffffffffffffffffff1663010c5c97826040518263ffffffff167c0100000000000000000000000000000000000000000000000000000000028152600401808273ffffffffffffffffffffffffffffffffffffffff1673ffffffffffffffffffffffffffffffffffffffff16815260200191505060206040518083038186803b158015610d9657600080fd5b505afa158015610daa573d6000803e3d6000fd5b505050506040513d6020811015610dc057600080fd5b8101908080519060200190929190505050151515610e46576040517f08c379a000000000000000000000000000000000000000000000000000000000815260040180806020018281038252601a8152602001807f4169726c696e6520616c7265616479207265676973746572656400000000000081525060200191505060405180910390fd5b600073ffffffffffffffffffffffffffffffffffffffff168573ffffffffffffffffffffffffffffffffffffffff1614151515610eeb576040517f08c379a00000000000000000000000000000000000000000000000000000000081526004018080602001828103825260208152602001807f4169726c696e65206d75737420626520612076616c696420616464726573732e81525060200191505060405180910390fd5b6000935060009250600160ff16600060149054906101000a900460ff1660ff16101561122e5760806040519081016040528088888080601f016020809104026020016040519081016040528093929190818152602001838380828437600081840152601f19601f820116905080830192505050505050508152602001600180811115610f7357fe5b81526020016000151581526020016000815250600160008773ffffffffffffffffffffffffffffffffffffffff1673ffffffffffffffffffffffffffffffffffffffff1681526020019081526020016000206000820151816000019080519060200190610fe192919061485b565b5060208201518160010160006101000a81548160ff0219169083600181111561100657fe5b021790555060408201518160010160016101000a81548160ff021916908315150217905550606082015181600201559050506001600260008773ffffffffffffffffffffffffffffffffffffffff1673ffffffffffffffffffffffffffffffffffffffff16815260200190815260200160002060006101000a81548160ff02191690831515021790555060038590806001815401808255809150509060018203906000526020600020016000909192909190916101000a81548173ffffffffffffffffffffffffffffffffffffffff021916908373ffffffffffffffffffffffffffffffffffffffff16021790555050600860009054906101000a900473ffffffffffffffffffffffffffffffffffffffff1673ffffffffffffffffffffffffffffffffffffffff1663bdfd9877866040518263ffffffff167c0100000000000000000000000000000000000000000000000000000000028152600401808273ffffffffffffffffffffffffffffffffffffffff1673ffffffffffffffffffffffffffffffffffffffff168152602001915050602060405180830381600087803b1580156111b357600080fd5b505af11580156111c7573d6000803e3d6000fd5b505050506040513d60208110156111dd57600080fd5b810190808051906020019092919050505093508315611229576000601481819054906101000a900460ff168092919060010191906101000a81548160ff021916908360ff160217905550505b611833565b600260008673ffffffffffffffffffffffffffffffffffffffff1673ffffffffffffffffffffffffffffffffffffffff16815260200190815260200160002060009054906101000a900460ff1615156113aa5760806040519081016040528088888080601f016020809104026020016040519081016040528093929190818152602001838380828437600081840152601f19601f820116905080830192505050505050508152602001600060018111156112e457fe5b81526020016000151581526020016000815250600160008773ffffffffffffffffffffffffffffffffffffffff1673ffffffffffffffffffffffffffffffffffffffff168152602001908152602001600020600082015181600001908051906020019061135292919061485b565b5060208201518160010160006101000a81548160ff0219169083600181111561137757fe5b021790555060408201518160010160016101000a81548160ff021916908315150217905550606082015181600201559050505b6000600560008773ffffffffffffffffffffffffffffffffffffffff1673ffffffffffffffffffffffffffffffffffffffff16815260200190815260200160002090508060003373ffffffffffffffffffffffffffffffffffffffff1673ffffffffffffffffffffffffffffffffffffffff16815260200190815260200160002060009054906101000a900460ff161515611831576001600560008873ffffffffffffffffffffffffffffffffffffffff1673ffffffffffffffffffffffffffffffffffffffff16815260200190815260200160002060003373ffffffffffffffffffffffffffffffffffffffff1673ffffffffffffffffffffffffffffffffffffffff16815260200190815260200160002060006101000a81548160ff021916908315150217905550600160008773ffffffffffffffffffffffffffffffffffffffff1673ffffffffffffffffffffffffffffffffffffffff1681526020019081526020016000206002016000815480929190600101919050555061154c6002600060149054906101000a900460ff1660ff166142d590919063ffffffff16565b600160008873ffffffffffffffffffffffffffffffffffffffff1673ffffffffffffffffffffffffffffffffffffffff1681526020019081526020016000206002015410151561183057600860009054906101000a900473ffffffffffffffffffffffffffffffffffffffff1673ffffffffffffffffffffffffffffffffffffffff1663bdfd9877876040518263ffffffff167c0100000000000000000000000000000000000000000000000000000000028152600401808273ffffffffffffffffffffffffffffffffffffffff1673ffffffffffffffffffffffffffffffffffffffff168152602001915050602060405180830381600087803b15801561165357600080fd5b505af1158015611667573d6000803e3d6000fd5b505050506040513d602081101561167d57600080fd5b81019080805190602001909291905050509450600160008773ffffffffffffffffffffffffffffffffffffffff1673ffffffffffffffffffffffffffffffffffffffff16815260200190815260200160002060020154935060018060008873ffffffffffffffffffffffffffffffffffffffff1673ffffffffffffffffffffffffffffffffffffffff16815260200190815260200160002060010160006101000a81548160ff0219169083600181111561173357fe5b02179055506001600260008873ffffffffffffffffffffffffffffffffffffffff1673ffffffffffffffffffffffffffffffffffffffff16815260200190815260200160002060006101000a81548160ff02191690831515021790555060038690806001815401808255809150509060018203906000526020600020016000909192909190916101000a81548173ffffffffffffffffffffffffffffffffffffffff021916908373ffffffffffffffffffffffffffffffffffffffff16021790555050841561182f576000601481819054906101000a900460ff168092919060010191906101000a81548160ff021916908360ff160217905550505b5b5b505b8383935093505050935093915050565b6000600860009054906101000a900473ffffffffffffffffffffffffffffffffffffffff1673ffffffffffffffffffffffffffffffffffffffff1663cd905dff6040518163ffffffff167c010000000000000000000000000000000000000000000000000000000002815260040160206040518083038186803b1580156118c957600080fd5b505afa1580156118dd573d6000803e3d6000fd5b505050506040513d60208110156118f357600080fd5b8101908080519060200190929190505050151561199e576040517f08c379a00000000000000000000000000000000000000000000000000000000081526004018080602001828103825260258152602001807f436f6e74726163742069732063757272656e746c79206e6f74206f706572617481526020017f696f6e616c00000000000000000000000000000000000000000000000000000081525060400191505060405180910390fd5b600860009054906101000a900473ffffffffffffffffffffffffffffffffffffffff1673ffffffffffffffffffffffffffffffffffffffff166345d29b92336040518263ffffffff167c0100000000000000000000000000000000000000000000000000000000028152600401808273ffffffffffffffffffffffffffffffffffffffff1673ffffffffffffffffffffffffffffffffffffffff16815260200191505060206040518083038186803b158015611a5957600080fd5b505afa158015611a6d573d6000803e3d6000fd5b505050506040513d6020811015611a8357600080fd5b8101908080519060200190929190505050905090565b6000600860009054906101000a900473ffffffffffffffffffffffffffffffffffffffff1673ffffffffffffffffffffffffffffffffffffffff1663cd905dff6040518163ffffffff167c010000000000000000000000000000000000000000000000000000000002815260040160206040518083038186803b158015611b1f57600080fd5b505afa158015611b33573d6000803e3d6000fd5b505050506040513d6020811015611b4957600080fd5b81019080805190602001909291905050501515611bf4576040517f08c379a00000000000000000000000000000000000000000000000000000000081526004018080602001828103825260258152602001807f436f6e74726163742069732063757272656e746c79206e6f74206f706572617481526020017f696f6e616c00000000000000000000000000000000000000000000000000000081525060400191505060405180910390fd5b6000600860009054906101000a900473ffffffffffffffffffffffffffffffffffffffff1673ffffffffffffffffffffffffffffffffffffffff166345d29b92336040518263ffffffff167c0100000000000000000000000000000000000000000000000000000000028152600401808273ffffffffffffffffffffffffffffffffffffffff1673ffffffffffffffffffffffffffffffffffffffff16815260200191505060206040518083038186803b158015611cb157600080fd5b505afa158015611cc5573d6000803e3d6000fd5b505050506040513d6020811015611cdb57600080fd5b81019080805190602001909291905050509050808311151515611d66576040517f08c379a00000000000000000000000000000000000000000000000000000000081526004018080602001828103825260208152602001807f52657175657374656420616d6f756e7420657863656564732062616c616e636581525060200191505060405180910390fd5b600860009054906101000a900473ffffffffffffffffffffffffffffffffffffffff1673ffffffffffffffffffffffffffffffffffffffff16630792cca684336040518363ffffffff167c0100000000000000000000000000000000000000000000000000000000028152600401808381526020018273ffffffffffffffffffffffffffffffffffffffff1673ffffffffffffffffffffffffffffffffffffffff16815260200192505050602060405180830381600087803b158015611e2b57600080fd5b505af1158015611e3f573d6000803e3d6000fd5b505050506040513d6020811015611e5557600080fd5b8101908080519060200190929190505050915050919050565b600860009054906101000a900473ffffffffffffffffffffffffffffffffffffffff1673ffffffffffffffffffffffffffffffffffffffff1663cd905dff6040518163ffffffff167c010000000000000000000000000000000000000000000000000000000002815260040160206040518083038186803b158015611ef257600080fd5b505afa158015611f06573d6000803e3d6000fd5b505050506040513d6020811015611f1c57600080fd5b81019080805190602001909291905050501515611fc7576040517f08c379a00000000000000000000000000000000000000000000000000000000081526004018080602001828103825260258152602001807f436f6e74726163742069732063757272656e746c79206e6f74206f706572617481526020017f696f6e616c00000000000000000000000000000000000000000000000000000081525060400191505060405180910390fd5b670de0b6b3a76400003410151515612047576040517f08c379a000000000000000000000000000000000000000000000000000000000815260040180806020018281038252601c8152602001807f526567697374726174696f6e206665652069732072657175697265640000000081525060200191505060405180910390fd5b61204f6148db565b612058336142eb565b9050604080519081016040528060011515815260200182815250600960003373ffffffffffffffffffffffffffffffffffffffff1673ffffffffffffffffffffffffffffffffffffffff16815260200190815260200160002060008201518160000160006101000a81548160ff0219169083151502179055506020820151816001019060036120e89291906148fe565b5090505050565b60008060149054906101000a900460ff16905090565b670de0b6b3a764000081565b600860009054906101000a900473ffffffffffffffffffffffffffffffffffffffff1673ffffffffffffffffffffffffffffffffffffffff1663cd905dff6040518163ffffffff167c010000000000000000000000000000000000000000000000000000000002815260040160206040518083038186803b15801561219557600080fd5b505afa1580156121a9573d6000803e3d6000fd5b505050506040513d60208110156121bf57600080fd5b8101908080519060200190929190505050151561226a576040517f08c379a00000000000000000000000000000000000000000000000000000000081526004018080602001828103825260258152602001807f436f6e74726163742069732063757272656e746c79206e6f74206f706572617481526020017f696f6e616c00000000000000000000000000000000000000000000000000000081525060400191505060405180910390fd5b82600860009054906101000a900473ffffffffffffffffffffffffffffffffffffffff1673ffffffffffffffffffffffffffffffffffffffff1663010c5c97826040518263ffffffff167c0100000000000000000000000000000000000000000000000000000000028152600401808273ffffffffffffffffffffffffffffffffffffffff1673ffffffffffffffffffffffffffffffffffffffff16815260200191505060206040518083038186803b15801561232657600080fd5b505afa15801561233a573d6000803e3d6000fd5b505050506040513d602081101561235057600080fd5b810190808051906020019092919050505015156123d5576040517f08c379a00000000000000000000000000000000000000000000000000000000081526004018080602001828103825260168152602001807f4169726c696e65206e6f7420726567697374657265640000000000000000000081525060200191505060405180910390fd5b816000429050808210151515612453576040517f08c379a00000000000000000000000000000000000000000000000000000000081526004018080602001828103825260178152602001807f54696d65747374616d70206973206e6f742076616c696400000000000000000081525060200191505060405180910390fd5b858585600860009054906101000a900473ffffffffffffffffffffffffffffffffffffffff1673ffffffffffffffffffffffffffffffffffffffff1663e0cf1b90848484336040518563ffffffff167c0100000000000000000000000000000000000000000000000000000000028152600401808573ffffffffffffffffffffffffffffffffffffffff1673ffffffffffffffffffffffffffffffffffffffff168152602001806020018481526020018373ffffffffffffffffffffffffffffffffffffffff1673ffffffffffffffffffffffffffffffffffffffff168152602001828103825285818151815260200191508051906020019080838360005b8381101561256d578082015181840152602081019050612552565b50505050905090810190601f16801561259a5780820380516001836020036101000a031916815260200191505b509550505050505060206040518083038186803b1580156125ba57600080fd5b505afa1580156125ce573d6000803e3d6000fd5b505050506040513d60208110156125e457600080fd5b81019080805190602001909291905050501515612669576040517f08c379a00000000000000000000000000000000000000000000000000000000081526004018080602001828103825260178152602001807f596f752061726520616c726561647920696e737572656400000000000000000081525060200191505060405180910390fd5b670de0b6b3a7640000341115151561270f576040517f08c379a00000000000000000000000000000000000000000000000000000000081526004018080602001828103825260278152602001807f496e737572616e636520666565206d757374206265206c657373207468616e2081526020017f312065746865720000000000000000000000000000000000000000000000000081525060400191505060405180910390fd5b600760009054906101000a900473ffffffffffffffffffffffffffffffffffffffff1673ffffffffffffffffffffffffffffffffffffffff166108fc349081150290604051600060405180830381858888f19350505050158015612777573d6000803e3d6000fd5b50600860009054906101000a900473ffffffffffffffffffffffffffffffffffffffff1673ffffffffffffffffffffffffffffffffffffffff1663b11dca788a8a8a33346040518663ffffffff167c0100000000000000000000000000000000000000000000000000000000028152600401808673ffffffffffffffffffffffffffffffffffffffff1673ffffffffffffffffffffffffffffffffffffffff168152602001806020018581526020018473ffffffffffffffffffffffffffffffffffffffff1673ffffffffffffffffffffffffffffffffffffffff168152602001838152602001828103825286818151815260200191508051906020019080838360005b8381101561289657808201518184015260208101905061287b565b50505050905090810190601f1680156128c35780820380516001836020036101000a031916815260200191505b509650505050505050600060405180830381600087803b1580156128e657600080fd5b505af11580156128fa573d6000803e3d6000fd5b50505050505050505050505050565b6001602052806000526040600020600091509050806000018054600181600116156101000203166002900480601f0160208091040260200160405190810160405280929190818152602001828054600181600116156101000203166002900480156129b55780601f1061298a576101008083540402835291602001916129b5565b820191906000526020600020905b81548152906001019060200180831161299857829003601f168201915b5050505050908060010160009054906101000a900460ff16908060010160019054906101000a900460ff16908060020154905084565b60026020528060005260406000206000915054906101000a900460ff1681565b612a136148db565b600860009054906101000a900473ffffffffffffffffffffffffffffffffffffffff1673ffffffffffffffffffffffffffffffffffffffff1663cd905dff6040518163ffffffff167c010000000000000000000000000000000000000000000000000000000002815260040160206040518083038186803b158015612a9757600080fd5b505afa158015612aab573d6000803e3d6000fd5b505050506040513d6020811015612ac157600080fd5b81019080805190602001909291905050501515612b6c576040517f08c379a00000000000000000000000000000000000000000000000000000000081526004018080602001828103825260258152602001807f436f6e74726163742069732063757272656e746c79206e6f74206f706572617481526020017f696f6e616c00000000000000000000000000000000000000000000000000000081525060400191505060405180910390fd5b600960003373ffffffffffffffffffffffffffffffffffffffff1673ffffffffffffffffffffffffffffffffffffffff16815260200190815260200160002060000160009054906101000a900460ff161515612c30576040517f08c379a000000000000000000000000000000000000000000000000000000000815260040180806020018281038252601b8152602001807f4e6f74207265676973746572656420617320616e206f7261636c65000000000081525060200191505060405180910390fd5b600960003373ffffffffffffffffffffffffffffffffffffffff1673ffffffffffffffffffffffffffffffffffffffff168152602001908152602001600020600101600380602002604051908101604052809291908260038015612ccf576020028201916000905b82829054906101000a900460ff1660ff1681526020019060010190602082600001049283019260010382029150808411612c985790505b5050505050905090565b670de0b6b3a764000081565b600060149054906101000a900460ff1681565b6000600860009054906101000a900473ffffffffffffffffffffffffffffffffffffffff1673ffffffffffffffffffffffffffffffffffffffff1663cd905dff6040518163ffffffff167c010000000000000000000000000000000000000000000000000000000002815260040160206040518083038186803b158015612d7e57600080fd5b505afa158015612d92573d6000803e3d6000fd5b505050506040513d6020811015612da857600080fd5b81019080805190602001909291905050501515612e53576040517f08c379a00000000000000000000000000000000000000000000000000000000081526004018080602001828103825260258152602001807f436f6e74726163742069732063757272656e746c79206e6f74206f706572617481526020017f696f6e616c00000000000000000000000000000000000000000000000000000081525060400191505060405180910390fd5b600860009054906101000a900473ffffffffffffffffffffffffffffffffffffffff1673ffffffffffffffffffffffffffffffffffffffff16639e4a8f8f836040518263ffffffff167c0100000000000000000000000000000000000000000000000000000000028152600401808273ffffffffffffffffffffffffffffffffffffffff1673ffffffffffffffffffffffffffffffffffffffff16815260200191505060206040518083038186803b158015612f0e57600080fd5b505afa158015612f22573d6000803e3d6000fd5b505050506040513d6020811015612f3857600080fd5b81019080805190602001909291905050509050919050565b600860009054906101000a900473ffffffffffffffffffffffffffffffffffffffff1673ffffffffffffffffffffffffffffffffffffffff1663cd905dff6040518163ffffffff167c010000000000000000000000000000000000000000000000000000000002815260040160206040518083038186803b158015612fd457600080fd5b505afa158015612fe8573d6000803e3d6000fd5b505050506040513d6020811015612ffe57600080fd5b810190808051906020019092919050505015156130a9576040517f08c379a00000000000000000000000000000000000000000000000000000000081526004018080602001828103825260258152602001807f436f6e74726163742069732063757272656e746c79206e6f74206f706572617481526020017f696f6e616c00000000000000000000000000000000000000000000000000000081525060400191505060405180910390fd5b678ac7230489e800003410151515613129576040517f08c379a00000000000000000000000000000000000000000000000000000000081526004018080602001828103825260208152602001807f4d696e696d756e2066756e64696e6720616d6f756e742069732031302045544881525060200191505060405180910390fd5b33600860009054906101000a900473ffffffffffffffffffffffffffffffffffffffff1673ffffffffffffffffffffffffffffffffffffffff1663010c5c97826040518263ffffffff167c0100000000000000000000000000000000000000000000000000000000028152600401808273ffffffffffffffffffffffffffffffffffffffff1673ffffffffffffffffffffffffffffffffffffffff16815260200191505060206040518083038186803b1580156131e557600080fd5b505afa1580156131f9573d6000803e3d6000fd5b505050506040513d602081101561320f57600080fd5b81019080805190602001909291905050501515613294576040517f08c379a00000000000000000000000000000000000000000000000000000000081526004018080602001828103825260168152602001807f4169726c696e65206e6f7420726567697374657265640000000000000000000081525060200191505060405180910390fd5b600860009054906101000a900473ffffffffffffffffffffffffffffffffffffffff1673ffffffffffffffffffffffffffffffffffffffff16632302440834336040518363ffffffff167c0100000000000000000000000000000000000000000000000000000000028152600401808273ffffffffffffffffffffffffffffffffffffffff1673ffffffffffffffffffffffffffffffffffffffff1681526020019150506000604051808303818588803b15801561335157600080fd5b505af1158015613365573d6000803e3d6000fd5b505050505050565b6060600860009054906101000a900473ffffffffffffffffffffffffffffffffffffffff1673ffffffffffffffffffffffffffffffffffffffff1663cd905dff6040518163ffffffff167c010000000000000000000000000000000000000000000000000000000002815260040160206040518083038186803b1580156133f357600080fd5b505afa158015613407573d6000803e3d6000fd5b505050506040513d602081101561341d57600080fd5b810190808051906020019092919050505015156134c8576040517f08c379a00000000000000000000000000000000000000000000000000000000081526004018080602001828103825260258152602001807f436f6e74726163742069732063757272656e746c79206e6f74206f706572617481526020017f696f6e616c00000000000000000000000000000000000000000000000000000081525060400191505060405180910390fd5b600860009054906101000a900473ffffffffffffffffffffffffffffffffffffffff1673ffffffffffffffffffffffffffffffffffffffff16630d5dc0546040518163ffffffff167c010000000000000000000000000000000000000000000000000000000002815260040160006040518083038186803b15801561354c57600080fd5b505afa158015613560573d6000803e3d6000fd5b505050506040513d6000823e3d601f19601f82011682018060405250602081101561358a57600080fd5b8101908080516401000000008111156135a257600080fd5b828101905060208101848111156135b857600080fd5b81518560208202830111640100000000821117156135d557600080fd5b5050929190505050905090565b600860009054906101000a900473ffffffffffffffffffffffffffffffffffffffff1673ffffffffffffffffffffffffffffffffffffffff1663cd905dff6040518163ffffffff167c010000000000000000000000000000000000000000000000000000000002815260040160206040518083038186803b15801561366657600080fd5b505afa15801561367a573d6000803e3d6000fd5b505050506040513d602081101561369057600080fd5b8101908080519060200190929190505050151561373b576040517f08c379a00000000000000000000000000000000000000000000000000000000081526004018080602001828103825260258152602001807f436f6e74726163742069732063757272656e746c79206e6f74206f706572617481526020017f696f6e616c00000000000000000000000000000000000000000000000000000081525060400191505060405180910390fd5b8560ff16600960003373ffffffffffffffffffffffffffffffffffffffff1673ffffffffffffffffffffffffffffffffffffffff168152602001908152602001600020600101600060038110151561378f57fe5b602091828204019190069054906101000a900460ff1660ff16148061381e57508560ff16600960003373ffffffffffffffffffffffffffffffffffffffff1673ffffffffffffffffffffffffffffffffffffffff168152602001908152602001600020600101600160038110151561380357fe5b602091828204019190069054906101000a900460ff1660ff16145b8061389357508560ff16600960003373ffffffffffffffffffffffffffffffffffffffff1673ffffffffffffffffffffffffffffffffffffffff168152602001908152602001600020600101600260038110151561387857fe5b602091828204019190069054906101000a900460ff1660ff16145b151561392d576040517f08c379a00000000000000000000000000000000000000000000000000000000081526004018080602001828103825260238152602001807f496e64657820646f6573206e6f74206d61746368206f7261636c65207265717581526020017f657374000000000000000000000000000000000000000000000000000000000081525060400191505060405180910390fd5b60008686868686604051602001808660ff1660ff167f01000000000000000000000000000000000000000000000000000000000000000281526001018573ffffffffffffffffffffffffffffffffffffffff1673ffffffffffffffffffffffffffffffffffffffff166c010000000000000000000000000281526014018484808284378083019250505082815260200195505050505050604051602081830303815290604052805190602001209050600a600082815260200190815260200160002060000160149054906101000a900460ff161515613a74576040517f08c379a000000000000000000000000000000000000000000000000000000000815260040180806020018281038252601f8152602001807f6f7261636c65207265717565737420616c7265616479207265736f6c7665640081525060200191505060405180910390fd5b600a600082815260200190815260200160002060010160008360ff1660ff1681526020019081526020016000203390806001815401808255809150509060018203906000526020600020016000909192909190916101000a81548173ffffffffffffffffffffffffffffffffffffffff021916908373ffffffffffffffffffffffffffffffffffffffff160217905550507f43c853095c2752648493c88b4baac4d580d2594ffb00c6f1d4242d844514f7838686868686604051808673ffffffffffffffffffffffffffffffffffffffff1673ffffffffffffffffffffffffffffffffffffffff168152602001806020018481526020018360ff1660ff1681526020018281038252868682818152602001925080828437600081840152601f19601f820116905080830192505050965050505050505060405180910390a16003600a600083815260200190815260200160002060010160008460ff1660ff16815260200190815260200160002080549050101515613d19576000600a600083815260200190815260200160002060000160146101000a81548160ff0219169083151502179055507fe23f5229de535c091e3b7bec2665f5d698192d3b31393066e8987b7a05076b6c8686868686604051808673ffffffffffffffffffffffffffffffffffffffff1673ffffffffffffffffffffffffffffffffffffffff168152602001806020018481526020018360ff1660ff1681526020018281038252868682818152602001925080828437600081840152601f19601f820116905080830192505050965050505050505060405180910390a1613d188686868080601f016020809104026020016040519081016040528093929190818152602001838380828437600081840152601f19601f820116905080830192505050505050508585614491565b5b50505050505050565b6000600860009054906101000a900473ffffffffffffffffffffffffffffffffffffffff1673ffffffffffffffffffffffffffffffffffffffff1663cd905dff6040518163ffffffff167c010000000000000000000000000000000000000000000000000000000002815260040160206040518083038186803b158015613da857600080fd5b505afa158015613dbc573d6000803e3d6000fd5b505050506040513d6020811015613dd257600080fd5b8101908080519060200190929190505050905090565b678ac7230489e8000081565b600860009054906101000a900473ffffffffffffffffffffffffffffffffffffffff1673ffffffffffffffffffffffffffffffffffffffff1663cd905dff6040518163ffffffff167c010000000000000000000000000000000000000000000000000000000002815260040160206040518083038186803b158015613e7857600080fd5b505afa158015613e8c573d6000803e3d6000fd5b505050506040513d6020811015613ea257600080fd5b81019080805190602001909291905050501515613f4d576040517f08c379a00000000000000000000000000000000000000000000000000000000081526004018080602001828103825260258152602001807f436f6e74726163742069732063757272656e746c79206e6f74206f706572617481526020017f696f6e616c00000000000000000000000000000000000000000000000000000081525060400191505060405180910390fd5b83600860009054906101000a900473ffffffffffffffffffffffffffffffffffffffff1673ffffffffffffffffffffffffffffffffffffffff1663010c5c97826040518263ffffffff167c0100000000000000000000000000000000000000000000000000000000028152600401808273ffffffffffffffffffffffffffffffffffffffff1673ffffffffffffffffffffffffffffffffffffffff16815260200191505060206040518083038186803b15801561400957600080fd5b505afa15801561401d573d6000803e3d6000fd5b505050506040513d602081101561403357600080fd5b810190808051906020019092919050505015156140b8576040517f08c379a00000000000000000000000000000000000000000000000000000000081526004018080602001828103825260168152602001807f4169726c696e65206e6f7420726567697374657265640000000000000000000081525060200191505060405180910390fd5b60006140c33361475c565b905060008187878787604051602001808660ff1660ff167f01000000000000000000000000000000000000000000000000000000000000000281526001018573ffffffffffffffffffffffffffffffffffffffff1673ffffffffffffffffffffffffffffffffffffffff166c01000000000000000000000000028152601401848480828437808301925050508281526020019550505050505060405160208183030381529060405280519060200120905060408051908101604052803373ffffffffffffffffffffffffffffffffffffffff16815260200160011515815250600a600083815260200190815260200160002060008201518160000160006101000a81548173ffffffffffffffffffffffffffffffffffffffff021916908373ffffffffffffffffffffffffffffffffffffffff16021790555060208201518160000160146101000a81548160ff0219169083151502179055509050507f3ed01f2c3fc24c6b329d931e35b03e390d23497d22b3f90e15b600343e93df118288888888604051808660ff1660ff1681526020018573ffffffffffffffffffffffffffffffffffffffff1673ffffffffffffffffffffffffffffffffffffffff168152602001806020018381526020018281038252858582818152602001925080828437600081840152601f19601f820116905080830192505050965050505050505060405180910390a150505050505050565b600081838115156142e257fe5b04905092915050565b6142f36148db565b6142fb6148db565b6143048361475c565b81600060038110151561431357fe5b602002019060ff16908160ff168152505080600060038110151561433357fe5b602002015181600160038110151561434757fe5b602002019060ff16908160ff16815250505b80600060038110151561436857fe5b602002015160ff1681600160038110151561437f57fe5b602002015160ff1614156143bb576143968361475c565b8160016003811015156143a557fe5b602002019060ff16908160ff1681525050614359565b8060016003811015156143ca57fe5b60200201518160026003811015156143de57fe5b602002019060ff16908160ff16815250505b8060006003811015156143ff57fe5b602002015160ff1681600260038110151561441657fe5b602002015160ff161480614455575080600160038110151561443457fe5b602002015160ff1681600260038110151561444b57fe5b602002015160ff16145b15614488576144638361475c565b81600260038110151561447257fe5b602002019060ff16908160ff16815250506143f0565b80915050919050565b600860009054906101000a900473ffffffffffffffffffffffffffffffffffffffff1673ffffffffffffffffffffffffffffffffffffffff1663cd905dff6040518163ffffffff167c010000000000000000000000000000000000000000000000000000000002815260040160206040518083038186803b15801561451557600080fd5b505afa158015614529573d6000803e3d6000fd5b505050506040513d602081101561453f57600080fd5b810190808051906020019092919050505015156145ea576040517f08c379a00000000000000000000000000000000000000000000000000000000081526004018080602001828103825260258152602001807f436f6e74726163742069732063757272656e746c79206e6f74206f706572617481526020017f696f6e616c00000000000000000000000000000000000000000000000000000081525060400191505060405180910390fd5b601460ff168160ff16141561475657600860009054906101000a900473ffffffffffffffffffffffffffffffffffffffff1673ffffffffffffffffffffffffffffffffffffffff1663cd7d882c858585600f600a6040518663ffffffff167c0100000000000000000000000000000000000000000000000000000000028152600401808673ffffffffffffffffffffffffffffffffffffffff1673ffffffffffffffffffffffffffffffffffffffff16815260200180602001858152602001848152602001838152602001828103825286818151815260200191508051906020019080838360005b838110156146ed5780820151818401526020810190506146d2565b50505050905090810190601f16801561471a5780820380516001836020036101000a031916815260200191505b509650505050505050600060405180830381600087803b15801561473d57600080fd5b505af1158015614751573d6000803e3d6000fd5b505050505b50505050565b600080600a905060008160ff166008601481819054906101000a900460ff168092919060010191906101000a81548160ff021916908360ff16021790555060ff1643034085604051602001808381526020018273ffffffffffffffffffffffffffffffffffffffff1673ffffffffffffffffffffffffffffffffffffffff166c0100000000000000000000000002815260140192505050604051602081830303815290604052805190602001206001900481151561481657fe5b06905060fa600860149054906101000a900460ff1660ff161115614851576000600860146101000a81548160ff021916908360ff1602179055505b8092505050919050565b828054600181600116156101000203166002900490600052602060002090601f016020900481019282601f1061489c57805160ff19168380011785556148ca565b828001600101855582156148ca579182015b828111156148c95782518255916020019190600101906148ae565b5b5090506148d79190614998565b5090565b606060405190810160405280600390602082028038833980820191505090505090565b826003601f016020900481019282156149875791602002820160005b8382111561495857835183826101000a81548160ff021916908360ff160217905550926020019260010160208160000104928301926001030261491a565b80156149855782816101000a81549060ff0219169055600101602081600001049283019260010302614958565b505b50905061499491906149bd565b5090565b6149ba91905b808211156149b657600081600090555060010161499e565b5090565b90565b6149ea91905b808211156149e657600081816101000a81549060ff0219169055506001016149c3565b5090565b9056fea165627a7a723058209b37a216b3e4bc63e8fcaa6fcdd1f78e79edb40b43cf3ce9cdabf3ee4136d5ab0029",
  "source": "pragma solidity ^0.5.0;\n\n// It's important to avoid vulnerabilities due to numeric overflow bugs\n// OpenZeppelin's SafeMath library, when used correctly, protects agains such bugs\n// More info: https://www.nccgroup.trust/us/about-us/newsroom-and-events/blog/2018/november/smart-contract-insecurity-bad-arithmetic/\n\nimport \"../node_modules/openzeppelin-solidity/contracts/math/SafeMath.sol\";\n\n/************************************************** */\n/* FlightSurety Smart Contract                      */\n/************************************************** */\ncontract FlightSuretyApp {\n    using SafeMath for uint256; // Allow SafeMath functions to be called for all uint256 types (similar to \"prototype\" in Javascript)\n    using SafeMath for uint8;\n\n    /********************************************************************************************/\n    /*                                       DATA VARIABLES                                     */\n    /********************************************************************************************/\n\n    // Flight status codes\n    uint8 private constant STATUS_CODE_UNKNOWN = 0;\n    uint8 private constant STATUS_CODE_ON_TIME = 10;\n    uint8 private constant STATUS_CODE_LATE_AIRLINE = 20;\n    uint8 private constant STATUS_CODE_LATE_WEATHER = 30;\n    uint8 private constant STATUS_CODE_LATE_TECHNICAL = 40;\n    uint8 private constant STATUS_CODE_LATE_OTHER = 50;\n\n    uint8 private constant MIN_AIRLINES_FOR_MULTIPARTY_REGISTRATION = 1;\n    uint256 public constant MAX_INSURANCE_FEE = 1 ether;\n    uint256 public constant MIN_FUNDING_AMOUNT = 10 ether;\n\n    address private contractOwner;          // Account used to deploy contract\n    uint8 public numOfRegisteredAirlines = 0;\n\n    struct Airline {\n        string name;\n        RegistrationState state;\n        bool funded;\n        uint numOfVotes;\n    }\n    mapping(address => Airline) public airlines;\n    mapping(address => bool) public exist;\n\n    enum RegistrationState {\n        WaitingToBeVoted,\n        Registered\n    }\n    address[] addedAirlines;\n\n    struct Flight {\n        bool isRegistered;\n        bool isFunded;\n        uint8 statusCode;\n        uint256 updatedTimestamp;\n        address airline;\n    }\n    mapping(bytes32 => Flight) private flights;\n\n    struct VotingAirline{\n        address airline;\n        bool  poll;\n    }\n\n\n   //it contains the list of airline addresses which are voting for another airline\n   //<<airlinebeingregistered> => (<callingairline> => bool)\n    mapping(address => mapping(address => bool)) private airlinePolls;\n   // mapping(address => address[]) private airlinePolls;\n\n    //no of airlines voted for the airline to be registered\n    mapping(address => uint8) private noOfVoters;\n\n    address payable flightContractData;\n\n    FlightSuretyData flightSuretyData;\n    /********************************************************************************************/\n    /*                                       FUNCTION MODIFIERS                                 */\n    /********************************************************************************************/\n\n    // Modifiers help avoid duplication of code. They are typically used to validate something\n    // before a function is allowed to be executed.\n\n    /**\n    * @dev Modifier that requires the \"operational\" boolean variable to be \"true\"\n    *      This is used on all state changing functions to pause the contract in\n    *      the event there is an issue that needs to be fixed\n    */\n    modifier requireIsOperational()\n    {\n         //  call data contract's status\n        require(flightSuretyData.isOperational(), \"Contract is currently not operational\");\n        _;  // All modifiers require an \"_\" which indicates where the function body will be added\n    }\n\n    /**\n    * @dev Modifier that requires the \"ContractOwner\" account to be the function caller\n    */\n    modifier requireContractOwner()\n    {\n        require(msg.sender == contractOwner, \"Caller is not contract owner\");\n        _;\n    }\n\n    modifier requireCallerAirlineRegistered()\n    {\n\n        require(flightSuretyData.isAirlineRegistered(msg.sender), \"Airline not registered\");\n        _;\n    }\n\n    modifier requireAirlineNotRegisteredYet(address airline)\n    {\n        require(!flightSuretyData.isAirlineRegistered(airline), \"Airline already registered\");\n        _;\n\n    }\n     modifier requireIsAirlineRegistered(address airline)\n    {\n        require(flightSuretyData.isAirlineRegistered(airline), \"Airline not registered\");\n        _;\n\n    }\n    modifier requireCallerAirlineFunded()\n    {\n        bool funded = flightSuretyData.getAirlineFunds(msg.sender);\n\n        require(funded == true, \"Airline can not participate in contract until it submits 10 ether\");\n        _;\n    }\n\n    modifier requireIsTimestampValid(uint timestamp)\n    {\n       uint currentTime = block.timestamp;\n       require(timestamp >= currentTime,\"Timetstamp is not valid\");\n        _;\n    }\n\n\n    modifier requireDidNotpurchaseInsurance(address airline,string memory flight,uint timestamp)\n    {\n        require(flightSuretyData.isnotinsured(airline,flight,timestamp,msg.sender),\"You are already insured\");\n        _;\n    }\n    // Part of app contract (business rule that might change)\n    modifier adequateFunding() {\n        require(msg.value >= MIN_FUNDING_AMOUNT, \"Minimun funding amount is 10 ETH\");\n        _;\n    }\n\n    /********************************************************************************************/\n    /*                                       CONSTRUCTOR                                        */\n    /********************************************************************************************/\n\n    /**\n    * @dev Contract constructor\n    *\n    */\n    constructor\n                                (\n                                     address dataContract, string memory _name, address firstAirline\n                                )\n                                public\n    {\n        contractOwner = msg.sender;\n        flightSuretyData = FlightSuretyData(dataContract);\n        flightContractData = address(uint160(dataContract));\n        airlines[firstAirline] = Airline({name: _name, state: RegistrationState.Registered, funded: false, numOfVotes: 0});\n        numOfRegisteredAirlines=1;\n        addedAirlines.push(firstAirline);\n\n\n    }\n\n    /********************************************************************************************/\n    /*                                       UTILITY FUNCTIONS                                  */\n    /********************************************************************************************/\n\n    function isOperational()\n                            public\n                            view\n                            returns(bool)\n    {\n        return flightSuretyData.isOperational();  // Modify to call data contract's status\n    }\n    function numOfAirlines() public view returns(uint8){\n      return numOfRegisteredAirlines;\n    }\n    /********************************************************************************************/\n    /*                                     SMART CONTRACT FUNCTIONS                             */\n    /********************************************************************************************/\n\n\n   /**\n    * @dev Add an airline to the registration queue. If there are more than 4 registered airlines\n    *      then there needs to be a consensus of 50% of the registered airlines\n    *\n    */\n    function registerAirline\n                            (\n                                string calldata _name,\n                                address _airline\n                            )\n                            external\n                            requireIsOperational\n                            requireCallerAirlineRegistered\n                            requireCallerAirlineFunded\n                            requireAirlineNotRegisteredYet(_airline)\n                            returns(bool successfulRegistration, uint256 votes)\n    {\n        require(_airline != address(0), \"Airline must be a valid address.\");\n        successfulRegistration = false;\n        votes = 0;\n        if(numOfRegisteredAirlines < MIN_AIRLINES_FOR_MULTIPARTY_REGISTRATION) {\n\n            airlines[_airline] = Airline({name: _name, state: RegistrationState.Registered, funded: false, numOfVotes: 0});\n            exist[_airline] = true;\n            addedAirlines.push(_airline);\n            successfulRegistration = flightSuretyData.registerAirline(_airline);\n            if(successfulRegistration) {\n                numOfRegisteredAirlines ++;\n            }\n        }else{\n            if(!exist[_airline]){\n              airlines[_airline] = Airline({name: _name, state: RegistrationState.WaitingToBeVoted, funded: false, numOfVotes: 0});\n            }\n\n            mapping(address=>bool) storage supportingAirlines = airlinePolls[_airline];\n            //check if the airline is not calling 2nd time\n            if(!supportingAirlines[msg.sender]){\n                airlinePolls[_airline][msg.sender] = true; //add the sender to the list of voters for the airline\n                //noOfVoters[airline] ++;\n                airlines[_airline].numOfVotes ++;\n                if(airlines[_airline].numOfVotes >= numOfRegisteredAirlines.div(2))\n                {\n                    successfulRegistration = flightSuretyData.registerAirline(_airline);\n                    votes = airlines[_airline].numOfVotes;\n                    airlines[_airline].state = RegistrationState.Registered;\n                    exist[_airline] = true;\n                    addedAirlines.push(_airline);\n                    if(successfulRegistration) {\n                      numOfRegisteredAirlines++;\n                    }\n                }\n             }\n\n            }\n\n        return (successfulRegistration, votes);\n    }\n     /**\n    * @dev add funds for airline.\n    *\n    */\n    function fundingAirline()\n    public\n    payable\n    requireIsOperational\n    adequateFunding\n    requireIsAirlineRegistered(msg.sender)\n    {\n        // Transfer Fund to Data Contract\n        //address(flightContractData).transfer(msg.value);\n        //flightSuretyData.fund(msg.sender,msg.value);\n        flightSuretyData.fund.value(msg.value)(msg.sender);\n    }\n\n\n   /**\n    * @dev Register a future flight for insuring.Timestamp is the departure time of a flight.\n    *       Purchase Flight insurance before flight departure\n    */\n    function registerFlight\n                                (\n                                    address airline,\n                                    string memory flight,\n                                    uint timestamp\n                                )\n                                public\n                                payable\n                                requireIsOperational\n                                requireIsAirlineRegistered(airline)\n                                requireIsTimestampValid(timestamp)\n                                requireDidNotpurchaseInsurance(airline,flight,timestamp)\n\n    {\n       require(msg.value <= MAX_INSURANCE_FEE, \"Insurance fee must be less than 1 ether\");\n       //check if the passenger already has insurance\n\n        address(flightContractData).transfer(msg.value);\n\n        flightSuretyData.buy(airline, flight, timestamp,msg.sender, msg.value);\n\n\n    }\n    //test\n    //uint balance = 150;\n\n   /**\n    * @dev Called after oracle has updated flight status\n    *\n    */\n    function processFlightStatus\n                                (\n                                    address airline,\n                                    string memory flight,\n                                    uint256 timestamp,\n                                    uint8 statusCode\n                                )\n                                internal\n                                requireIsOperational\n\n    {\n       // address[] memory insurees = _flightSuretyData.getInsurees(airline, flight, timestamp);\n\n\n           if(statusCode == STATUS_CODE_LATE_AIRLINE) {\n\n             flightSuretyData.creditInsurees(airline, flight, timestamp,15,10);\n         }\n    }\n\n  /*  function getBalancetest() public view returns(uint)\n   {\n    return balance;\n   } */\n    // Generate a request for oracles to fetch flight information\n    function fetchFlightStatus\n                        (\n                            address airline,\n                            string calldata flight,\n                            uint256 timestamp\n                        )\n                        external\n                        requireIsOperational\n                        requireIsAirlineRegistered(airline)\n\n    {\n        uint8 index = getRandomIndex(msg.sender);\n\n        // Generate a unique key for storing the request\n        bytes32 key = keccak256(abi.encodePacked(index, airline, flight, timestamp));\n        oracleResponses[key] = ResponseInfo({\n                                                requester: msg.sender,\n                                                isOpen: true\n                                            });\n\n        emit OracleRequest(index, airline, flight, timestamp);\n    }\n\n\n// region ORACLE MANAGEMENT\n\n    // Incremented to add pseudo-randomness at various points\n    uint8 private nonce = 0;\n\n    // Fee to be paid when registering oracle\n    uint256 public constant REGISTRATION_FEE = 1 ether;\n\n    // Number of oracles that must respond for valid status\n    uint256 private constant MIN_RESPONSES = 3;\n\n\n    struct Oracle {\n        bool isRegistered;\n        uint8[3] indexes;\n    }\n\n    // Track all registered oracles\n    mapping(address => Oracle) private oracles;\n\n    // Model for responses from oracles\n    struct ResponseInfo {\n        address requester;                              // Account that requested status\n        bool isOpen;                                    // If open, oracle responses are accepted\n        mapping(uint8 => address[]) responses;          // Mapping key is the status code reported\n                                                        // This lets us group responses and identify\n                                                        // the response that majority of the oracles\n    }\n\n    // Track all oracle responses\n    // Key = hash(index, flight, timestamp)\n    mapping(bytes32 => ResponseInfo) private oracleResponses;\n\n    // Event fired each time an oracle submits a response\n    event FlightStatusInfo(address airline, string flight, uint256 timestamp, uint8 status);\n\n    event OracleReport(address airline, string flight, uint256 timestamp, uint8 status);\n\n    // Event fired when flight status request is submitted\n    // Oracles track this and if they have a matching index\n    // they fetch data and submit a response\n    event OracleRequest(uint8 index, address airline, string flight, uint256 timestamp);\n\n\n    // Register an oracle with the contract\n    function registerOracle\n                            (\n                            )\n                            external\n                            payable\n                            requireIsOperational\n    {\n        // Require registration fee\n        require(msg.value >= REGISTRATION_FEE, \"Registration fee is required\");\n\n        uint8[3] memory indexes = generateIndexes(msg.sender);\n\n        oracles[msg.sender] = Oracle({\n                                        isRegistered: true,\n                                        indexes: indexes\n                                    });\n    }\n\n    function getMyIndexes\n                            (\n                            )\n                            view\n                            external\n                            requireIsOperational\n                            returns(uint8[3] memory)\n    {\n        require(oracles[msg.sender].isRegistered, \"Not registered as an oracle\");\n\n        return oracles[msg.sender].indexes;\n    }\n\n\n\n\n    // Called by oracle when a response is available to an outstanding request\n    // For the response to be accepted, there must be a pending request that is open\n    // and matches one of the three Indexes randomly assigned to the oracle at the\n    // time of registration (i.e. uninvited oracles are not welcome)\n    function submitOracleResponse\n                        (\n                            uint8 index,\n                            address airline,\n                            string calldata flight,\n                            uint256 timestamp,\n                            uint8 statusCode\n                        )\n                        external\n                        requireIsOperational\n\n    {\n        require((oracles[msg.sender].indexes[0] == index) || (oracles[msg.sender].indexes[1] == index) || (oracles[msg.sender].indexes[2] == index), \"Index does not match oracle request\");\n\n\n        bytes32 key = keccak256(abi.encodePacked(index, airline, flight, timestamp));\n        require(oracleResponses[key].isOpen, \"oracle request already resolved\");\n\n        oracleResponses[key].responses[statusCode].push(msg.sender);\n\n        // Information isn't considered verified until at least MIN_RESPONSES\n        // oracles respond with the *** same *** information\n        emit OracleReport(airline, flight, timestamp, statusCode);\n\n        if (oracleResponses[key].responses[statusCode].length >= MIN_RESPONSES) {\n\n                oracleResponses[key].isOpen = false;\n\n            emit FlightStatusInfo(airline, flight, timestamp, statusCode);\n\n            // Handle flight status as appropriate\n            processFlightStatus(airline, flight, timestamp, statusCode);\n        }\n\n    }\n\n\n    function getFlightKey\n                        (\n                            address airline,\n                            string memory flight,\n                            uint256 timestamp\n                        )\n                        pure\n                        internal\n                        returns(bytes32)\n    {\n        return keccak256(abi.encodePacked(airline, flight, timestamp));\n    }\n\n    // Returns array of three non-duplicating integers from 0-9\n    function generateIndexes\n                            (\n                                address account\n                            )\n                            internal\n                            returns(uint8[3] memory)\n    {\n        uint8[3] memory indexes;\n        indexes[0] = getRandomIndex(account);\n\n        indexes[1] = indexes[0];\n        while(indexes[1] == indexes[0]) {\n            indexes[1] = getRandomIndex(account);\n        }\n\n        indexes[2] = indexes[1];\n        while((indexes[2] == indexes[0]) || (indexes[2] == indexes[1])) {\n            indexes[2] = getRandomIndex(account);\n        }\n\n        return indexes;\n    }\n\n    // Returns array of three non-duplicating integers from 0-9\n    function getRandomIndex\n                            (\n                                address account\n                            )\n                            internal\n                            returns (uint8)\n    {\n        uint8 maxValue = 10;\n\n        // Pseudo random number...the incrementing nonce adds variation\n        uint8 random = uint8(uint256(keccak256(abi.encodePacked(blockhash(block.number - nonce++), account))) % maxValue);\n\n        if (nonce > 250) {\n            nonce = 0;  // Can only fetch blockhashes for last 256 blocks so we adapt\n        }\n\n        return random;\n    }\n\n    function getExistingAirlines\n                            (\n\n                            )\n                             public\n                             view\n                             requireIsOperational\n                            returns(address[] memory)\n        {\n         return flightSuretyData.getAirlines();\n        }\n\n        function getAirlineFunds\n                            (\n                            address airline\n                            )\n                             public\n                             view\n                             requireIsOperational\n                             returns(bool)\n        {\n         return flightSuretyData.getAirlineFunds(airline);\n        }\n\n        function getBalance\n                            (\n\n                            )\n                            public\n                            view\n                            requireIsOperational\n                            returns(uint funds)\n            {\n                return flightSuretyData.getPassengerFunds(msg.sender);\n            }\n\n            function withdrawFunds\n            (\n                uint amount\n            )\n            public\n            requireIsOperational\n            returns(uint funds)\n            {\n               uint balance = flightSuretyData.getPassengerFunds(msg.sender);\n                require(amount <= balance, \"Requested amount exceeds balance\");\n\n                return flightSuretyData.withdrawPassengerFunds(amount,msg.sender);\n            }\n\n\n           /*  function getInsured(address airline, string flight, uint ts) public view returns(address[] insurees)\n            {\n                return _flightSuretyData.getInsurees(airline,flight,ts);\n            }\n            function getInsuredamount(address airline, string flight, uint ts) public view returns(uint amount)\n            {\n                return _flightSuretyData.getInsureesAmount(airline,flight,ts);\n            } */\n\n// endregion\n\n}\n\ncontract FlightSuretyData {\n    //address [] public insurees;\n    function isOperational() public view returns(bool);\n    function isAirlineRegistered(address airline) public view returns (bool);\n    function isAirlineFunded(address airline) public view returns (bool);\n    function registerAirline(address airline) external returns (bool success);\n    function fund(address airline) public payable;\n    function buy(address airline, string calldata flight, uint256 timestamp,address passenger, uint256 amount) external;\n    function creditInsurees(address airline, string calldata flight, uint256 timestamp,uint factor_numerator,uint factor_denominator) external;\n    function getAirlines() external view returns(address[] memory);\n    function getAirlineFunds(address airline) external view returns(bool);\n    function isnotinsured(address airline,string calldata flight,uint timestamp,address passenger) external view returns(bool);\n    function getPassengerFunds(address passenger) external view returns(uint);\n    function withdrawPassengerFunds(uint amount,address passenger) external returns(uint);\n    // function getInsurees(address airline,string flight,uint ts)  external view returns(address[]);\n    /* function isAmountNotPaid(address airline,string flight,uint ts,address passenger) external view returns(bool);\n    function getInsuredAmount(address airline,string flight,uint ts,address passenger) external view returns(uint);\n    function pay(address airline,string flight,uint ts,address passenger,uint payout) external; */\n\n    /* function getInsurees(address airline,string flight,uint ts) external view returns(address[]);\n    function getInsureesAmount(address airline,string flight,uint ts) external view returns(uint);  */\n\n}\n",
  "sourcePath": "/home/teo/Documents/Blockchain-Udacity/flightSurety-master-master/contracts/FlightSuretyApp.sol",
  "compiler": {
    "name": "solc",
    "version": "0.5.0+commit.1d4f565a.Emscripten.clang"
  },
  "schemaVersion": "3.0.2",
  "updatedAt": "2019-06-14T06:21:28.601Z",
  "devdoc": {
    "methods": {
      "constructor": {
        "details": "Contract constructor    "
      },
      "fundingAirline()": {
        "details": "add funds for airline.    "
      },
      "registerAirline(string,address)": {
        "details": "Add an airline to the registration queue. If there are more than 4 registered airlines     then there needs to be a consensus of 50% of the registered airlines    "
      },
      "registerFlight(address,string,uint256)": {
        "details": "Register a future flight for insuring.Timestamp is the departure time of a flight.      Purchase Flight insurance before flight departure"
      }
    }
  },
  "userdoc": {
    "methods": {
      "isOperational()": {
        "notice": "*****************************************************************************************"
      }
    },
    "notice": "************************************************ "
  }
}